:020000041000EA
:1000000000B5324B212058609868022188439860DF
:10001000D860186158612E4B002199600221596106
:100020000121F02299502B49196001219960352056
:1000300000F044F80222904214D00621196600F024
:1000400034F8196E01211966002018661A6600F04E
:100050002CF8196E196E196E052000F02FF8012189
:100060000842F9D1002199601B49196000215960AB
:100070001A491B48016001219960EB211966A021F2
:10008000196600F012F800219960164914480160C1
:100090000121996001BC002800D000471248134993
:1000A000086003C880F30888084703B5996A0420EC
:1000B0000142FBD001200142F8D103BD02B5186610
:1000C0001866FFF7F2FF186E186E02BD00000240BE
:1000D000000000180000070000035F00212200005C
:1000E000F4000018222000A00001001008ED00E03C
:1000F00000000000000000000000000074B24E7A12
:1001000000200420F7010010C3010010C5010010F9
:10011000C1010010C1010010C1010010C101001097
:10012000C1010010C1010010C1010010C701001081
:10013000C1010010C1010010C9010010CB01001065
:10014000CD010010CD010010CD010010CD01001037
:10015000CD010010CD010010CD010010CD01001027
:10016000CD010010CD010010CD010010CD01001017
:10017000CD010010CD010010CD010010CD01001007
:10018000CD010010CD010010CD010010CD010010F7
:10019000CD010010CD010010CD010010CD010010E7
:1001A000CD010010CD010010CD010010CD010010D7
:1001B000CD010010CD010010CD010010CD010010C7
:1001C00000BE00BE00BE00BE00BE00BEEFF3058054
:1001D000103800BEF2EB8871DC34001000350010DE
:1001E0003402001090A31AE700201F49086006C8D7
:1001F00081F3088810471D48006800282FD10DA4FE
:100200000ECC002902D000F012F8F9E71849194A7B
:10021000002000E001C19142FCD1174988471749ED
:1002200088471749884700BEFDE701C901C29A42C5
:10023000FBD3704700350010C0000020BC03002035
:10024000FC3700100000042000000420FC370010E0
:10025000001004200010042000000000704709482E
:1002600002F0FAFA0047000008ED00E0000000D0BC
:10027000C003002010080020D126001065040010E3
:10028000C52700105756000006005250ABB360530C
:100290003034001006005250861C03024034001017
:1002A000060052505422A29D5434001005005250B2
:1002B000DE65F468FC370010F8B5C0460448054B0D
:1002C00010B5834203D0044B002B00D0984710BDDB
:1002D000BC030020BC0300200000000006480749C2
:1002E000091A8B10C90FC91810B5491003D0044B57
:1002F000002B00D0984710BDBC030020BC03002099
:100300000000000010B5074C2378002B09D1FFF73F
:10031000D5FF054B002B02D0044800E000BF0123AD
:10032000237010BDD806002000000000903300109C
:10033000054B10B5002B03D00449054800E000BF71
:10034000FFF7CCFF10BDC04600000000DC06002017
:10035000903300100122014B1A7070470B080020E7
:100360000122014B1A7070470108002030B50129A5
:1003700004D0022932D000291DD030BD00222F4BDD
:100380001A702F4B1978002944D12E4C2378002B5A
:1003900047D02D4A2D4D13780068DBB2EB5CDBB201
:1003A000036113780133DBB213701378042BE4D9A3
:1003B00021701170E1E7214B1A78002A12D10268EE
:1003C00023491269D2B20A70012A2DD0032A02D120
:1003D00001211C4A117001221A70CEE700221A4B2B
:1003E0001A70CAE719701A4B1B78022B1FD0042B06
:1003F000C3D1154A006813780069164CDBB2C0B24D
:10040000E05413780133DBB213701378042BB4D9A2
:100410001170B2E7104900680978C9B201611A7019
:10042000ABE702681361A8E705490A70D3E70368E0
:100430000A4A1B69DBB21370094BCCE7070800209E
:10044000FF070020FE07002005080020900700207D
:1004500006080020E0070020090800200C08002002
:1004600008080020F0B5DE4657464E464546E0B542
:100470008DB002F07BFC102000F0A0FB112000F0FA
:100480009DFB0321102000F011FB0321112000F03F
:100490000DFB00220121102000F020FB0022012191
:1004A000112000F01BFBD74CD749200002F0AEFE14
:1004B0005C21D64A200002F0F3FE192000F07EFBFA
:1004C000D024802324069B0463621B20A3619946E9
:1004D00000F074FB80231B0563621C20A36100F005
:1004E0006DFB80235B0563620A20A36100F066FB5D
:1004F0008023DB0063620C20A36100F05FFB80239C
:100500005B0100220121A3620C2000F0E7FA0B201E
:1005100000F054FB8023BE4F1B010022A362012187
:100520000B2000F0DBFA3800BA4902F00BFD002680
:1005300080460223380002220021009602F066FD68
:1005400000220121022000F0C9FA0022012103202B
:1005500000F0C4FA8022F82352025B020492059351
:10056000C02310221B0304A908A84546079606933A
:1005700002F094FA43460F351C331B03ED011D4373
:10058000102208A904A8099502F088FA80235B02CA
:100590000793A14B42461D404B461D4380231B033E
:1005A00038000021069304AB059502F087FD012277
:1005B0003B68072113433B608023FA20974F5B423F
:1005C0003A7840001A43D2B23A703A788A433A7085
:1005D000934A12781343924ADBB2137013788B4319
:1005E000137001F0FDF9012204218E4B0C2000F064
:1005F0008DFA00F0CFFF8C4B8C4A02938C4B019606
:100600000093002301F086F88A4A8B4B92468B4A6E
:10061000984691468A4A1B7893468A4D8A4E022B09
:1006200037D0022B43D8002B5BD0642001F0D8F9DF
:1006300001238022764952000B614B68180010405C
:100640001342FAD15A460B6A12689B1A52462B6023
:100650002B681B0E33702B681B14DBB273702B6876
:100660001B12DBB2B3702B68DBB2F3702B6812681D
:100670009B1A4A4613601368002B68D14246023326
:100680001370724B1B78002B6AD143461B78022BE8
:10069000C7D180235B05A36180233022DB00A361E7
:1006A0003B7893433B7042460323137001E0032BD6
:1006B000B5D15B4B664A1B789B06DB0F1370F8D0F5
:1006C00000234A46514613602A680A600A68594660
:1006D0000A60424613705F4A33707370B370F370F0
:1006E00013705D4A1278002A4AD15A4A1278002AB9
:1006F0000ED001234246137020223B7813433B70F7
:100700003B78103A13433B7080235B056361012300
:100710004E4A1278002A82D0962001F061F9012217
:1007200063681B0B1A42FBD001224C4B1B785340D1
:100730004A4ADBB21370002B1BD08023DB006361BD
:1007400080239B0463610023404A13709DE7524657
:100750002B6813604B4618603C4B1B78002B94D0E1
:10076000962001F03DF9012263681B0B1A42FBD071
:10077000DAE78023DB00A36180239B04A361E2E727
:10078000012280219C4622484900026142681300F0
:100790000B400A42FAD11A00314963469446026A74
:1007A0000A600A68002A08DA8022920462610A68F4
:1007B00051460A604A46614611605146284A12680D
:1007C0000968521A49460A600A68952A0FDC802295
:1007D0001205A26100221F490A705146204A126880
:1007E0000A60002249460A601B490A707DE78022A0
:1007F00012056261012217490A7052465946126871
:100800000A60EAE788030020A08601006D0300105B
:100810000000205090330010FFFFFFE00908002087
:100820000C08002061030010C006002020A1070072
:1008300055030010BC070020FC070020880700209B
:10084000B80700204407002090070020010800207E
:1008500000080020030800200B080020FD070020EE
:10086000B4070020D0231B061B68F0B59A0045464C
:1008700090464146894ADE465258574693465A1E8C
:10088000934130224E465B421A401300844AE0B541
:10089000944683B063440193824B08269A46350000
:1008A000083DEA081300019908339B005C58002CAE
:1008B00023D05B46002B2AD001230F27994639000D
:1008C0002140274213D04B4652464046AB40125877
:1008D0001A420CD1072208002A40920090400200E0
:1008E000EB0871483C339B001A502800D847240974
:1008F0000135002C01D0B542E1D30836282ECED1E7
:1009000003B0F0BCBB46B246A946A046F0BD0F23DB
:1009100019002140234207D047460E3BAB406148B7
:10092000C059184200D18DE02309F11F002BE4D0FB
:100930000F22100018401A420FD0012345468B4069
:10094000584A52591A4208D10722CB08114089004F
:100950008840554A3C339B009850230AB11F002B16
:10096000CBD00F22100018401A420FD00123454669
:100970008B404C4A52591A4208D10722CB081140E9
:1009800089008840484A3C339B009850230B711FD4
:10099000002BB2D00F22100018401A4241D1230C74
:1009A000311F002BA9D00F22100018401A4252D13B
:1009B000230DF11E002BA0D00F22100018401A4268
:1009C0005AD1230EB11E002B97D00F2210001840D1
:1009D0001A420FD0012345468B40324A52591A42DF
:1009E00008D10722CB081140890088402E4A3C33A9
:1009F0009B009850240F721E002C00D17DE701232C
:100A00005146404693400958194200D075E70721E6
:100A1000D3080A40920094403C33234A9B009C50E8
:100A20006BE7012345468B401E4A52591A42B6D104
:100A30000722CB081140890088401B4A3C339B00A9
:100A40009850ACE707231D40AD00A940164B3C323F
:100A50009200D15068E7012345468B40114A525914
:100A60001A42A5D10722CB081140890088400E4ABE
:100A70003C339B0098509BE7012345468B40094A35
:100A800052591A429DD10722CB0811408900884053
:100A9000054A3C339B00985093E7C0460C07002062
:100AA00000410140D007002000400140094A830076
:100AB00094464022634410B51C68C0006240C024C4
:100AC00014408022520113431C60034B9C46604437
:100AD000416010BD04C00140004001400A4B80004D
:100AE0009C4604236044002901D00C230821002ADD
:100AF00000D10B00026853400C221A4080235B0196
:100B0000184302607047C04604C00140F8B51E009B
:100B1000D0231B061C680700631E9C4130236442DF
:100B20001C40224B15009C46C30807201A00384081
:100B3000800081403C321E48644492009B0011506A
:100B4000E418002D11D080239B011C43D023216089
:100B50001B061C68174FA4003B59002B11D0002E18
:100B60001ED03E51002D16D1F8BDC0239B011C4361
:100B7000D02321601B061C680E4FA4003B59002B9C
:100B8000EDD1002EEED000220D200B493E5100F099
:100B9000D1F8002DE8D001210D2000F087F8E3E71F
:100BA0000D20054900F0BAF9DBE7C04600410140DD
:100BB000004001400C070020650800100123D022EE
:100BC0008340120693629361094A8300944640224F
:100BD00063441968C0004A40C0211140802252017C
:100BE00013431960034B9C460523604443607047E0
:100BF00004C0014000400140024B18688007C00F4C
:100C00007047C04600C00640EFF3108072B6034A3A
:100C10001368002BFCD0BFF35F8F70472C0100D00E
:100C2000BFF35F8F0022024B1A6080F31088704779
:100C30002C0100D070B5EFF3108C72B60D4D2B68FF
:100C4000002BFCD0BFF35F8F0724CB08C618C05C15
:100C500001230C40A3401C000440034207D103437E
:100C60003370BFF35F8F2C608CF3108870BD100061
:100C700001F0ACFD2C0100D00021044B044ABFF36D
:100C80005F8F02C39342FAD17047C046000100D083
:100C9000800100D0044A1078431CDBB2172B00D926
:100CA000102313707047C046D802002001238340F0
:100CB000002904D0034A1360034A13607047034AB3
:100CC0001360FBE780E200E000E100E080E100E08B
:100CD000024B10309B688000C058704700ED00E068
:100CE00070B50D00EFF3108672B60F4A1368002B33
:100CF000FCD0BFF35F8F0D4B10309B6884001B59F5
:100D00000B4A934203D09D4201D001F077FD074B7F
:100D10009B681D51BFF35F8FBFF35F8F0022024BB3
:100D20001A6086F3108870BD240100D000ED00E049
:100D3000CD010010F0B557464E46DE464546E0B5BB
:100D400085B0060002911700EFF3108B72B6674A68
:100D50001368002BFCD0BFF35F8F0025644B5D57F9
:100D60009A46002D00DAA4E06B00624C03935B19F5
:100D70009B009846A146C1444B4652469B7910368B
:100D800013705D4BB2009B68019299580B1B2F2B7F
:100D900034D95A4B994200D0A4E0039B584A9C4650
:100DA000584B6544AD006353434602336519E4185C
:100DB000554B0121043B1B1B1B055B0D13436B8033
:100DC000524BEF71AB80FF23AB71029BAB604B4684
:100DD0000B431900484B019A9B689950BFF35F8FF2
:100DE000BFF35F8F0022414B1A608BF3108805B070
:100DF000F0BCBB46B246A946A046F0BD01200A00A1
:100E00008243D379BB422FD845464E461300404912
:100E10001B1B5B415943090D3A4B63533A4B023557
:100E20006519043B5B1B1B05354D5B0D2B43738024
:100E30000426B446E0444444131F1B1B4C46A171D6
:100E400002991B05A16049465B0D2B43A380314BE2
:100E5000E77101431360BDE75800C01880002018F7
:100E6000C679BE422BD902000623D356002BF3DAF3
:100E7000101D82462848804604267642B446E14446
:100E800050464E46361A3005400D824656461C489E
:100E9000957106439680039A944665441D4AAD00B9
:100EA000641922604246A371029BA280E771A3608D
:100EB00090E701F0A3FC002553465D5754E7101D51
:100EC000824690884005001584464046D4446646D4
:100ED00004302018301AE0260005400D3602304359
:100EE0008046C9E701F08AFC57E7C046240100D0DC
:100EF00004080020DC02002000ED00E0CD0100101D
:100F000000E0FFFF00A1FFFF0C03002001BDFFFF79
:100F1000AAAA00000148804701BD0000F0B5DE46E6
:100F200057464E464546E0B50C0083B0EFF31089B6
:100F300072B6584A1368002BFCD0BFF35F8F564B34
:100F40009A68030010339F00D559544A9046954241
:100F500032D0A54243D0524EAA1B2F2A2CD80122B0
:100F60008240924651464F4A1268114001915146C3
:100F70004D4A1160BFF35F8FEFF305829346002A5D
:100F800033D101232A009A4393689C4208D177E029
:100F90004B005B189B00F3189968A1422AD01A00F5
:100FA000062151560029F3DA019B002B19D0524635
:100FB0003E4B1A603B4B1A60374B9B68DD51BFF3C9
:100FC0005F8FBFF35F8F0022324B1A6089F3108866
:100FD00003B0F0BCBB46B246A946A046F0BD150022
:100FE000EAE75246304B1A60E6E79342C9D001F077
:100FF00005FCC6E706215956002921DB4A00501896
:10100000800034188046A0689860E079D871062086
:1010100020569871002824DBA488F01A6405241552
:1010200044440019E0240005400D24022043988028
:1010300052181F4B9200B6181A781970B271B3E7A4
:10104000594600290FD1FF3191711A4991801849F1
:101050000A789A71184A9B1B5B415A43120D0A7019
:10106000A2E71648E3E7164A1649D21A083A500290
:10107000400D01439980144952080A43DA8093E7EE
:101080000621515613000029B8DA5A46002AEAD13F
:101090004546DCE7240100D000ED00E0CD01001062
:1010A000DC02002000E100E080E100E080E200E0FE
:1010B0000408002001BDFFFFAAAA000001BD000036
:1010C0001603002000F0FFFF00F8FFFF70B5EFF3FC
:1010D000058101240443EFF3108C72B6214A136892
:1010E000002BFCD0BFF35F8F1F4B05001F4AED1A8A
:1010F0006D416A43120D1E4D8900AE6852B276589A
:10110000A6421CD00621595691421CD01221595694
:10111000914222D01E215956914220D02A2159565F
:101120000324914210D0134B19781A708171BFF3C8
:101130005F8F00220B4B1A608CF3108870BDAB6878
:101140000D4C5C50EFE700246100091989005B1821
:10115000FF21997109499980E5E70124F4E7022408
:10116000F2E7C046240100D0DC020020AAAA000059
:1011700000ED00E004080020CD01001001BDFFFFDC
:10118000054B064A1360064A136053609360D360B0
:1011900013615361936170478080808000E400E0B8
:1011A00004E400E0024B9C46614489000160704702
:1011B0004000003410B50400FFF76CFD0100200072
:1011C000FFF7F0FFFF232371BFF35F8F10BDC04611
:1011D00010B50400FFF75EFD01002000FFF7E2FFFD
:1011E000FF23A380BFF35F8F10BDC04683680B4809
:1011F00010B5844661446244090112019A185918D5
:1012000054684B6801209C4201D802D00020C0B233
:1012100010BD12680B689A42F9D8F7E7FFFFFF0F7D
:1012200010B508000B690C009847002802D0206810
:10123000616810BDE06000210020FAE70A4B1968E0
:10124000EFF3108072B60A68002AFCD0BFF35F8FFC
:101250001B68BFF35F8F00221A6080F3108840BFC5
:10126000002000217047C046DC070020F8B5574633
:101270004E464546DE46E0B599460CAB1C780DABB4
:101280001B78060090469A460768002C11D1BC7B5B
:10129000002C42D065003B682D19033D59194B784D
:1012A000BB73002B00D1FB7300238B704B700B7052
:1012B00004E065003B682D19033D5919B2682A4BBB
:1012C00094464246E3181B0163441A604A465A603A
:1012D0000A9A9A600B9ADA6000238B704B700B703D
:1012E0007B7B9B46002B2BD022005946B8687B683D
:1012F00098473A68002816D05B4658465B005B4426
:101300005519033BA870D118D35C002B00D06B702B
:101310005B460C707B73A34513D0F0BCBB46B24652
:10132000A946A046F8BD5B465B005B44033BD3186F
:101330009C705119525D002A00D05A705B460B70A8
:101340007C7342464B46307D00F0C2FC051E06D041
:101350005346002B03D12100306800F0DDFE0E9BC8
:10136000002BDAD01D70D8E7FFFFFF0FF0B5DE4687
:1013700057464E4645460023E0B58BB00893674B71
:101380008200D45800239B46099000F017FC626845
:1013900006000F00EFF3108572B61368002BFCD027
:1013A000BFF35F8F23689C465B7B9946002B00D17F
:1013B00069E0A2685A4B90464B441B01984443464F
:1013C0001A685B6810001900801BB941002900DC15
:1013D00063E0099800F07CFC00230022984600237B
:1013E0000692079300239A466368BFF35F8F5A46BD
:1013F0001A6085F310885346002B08D10028C4D109
:101400000BB0F0BCBB46B246A946A046F0BD089B57
:10141000414618024B461843D047626806000F0049
:10142000EFF3108572B61368002BFCD0BFF35F8F0B
:10143000002F50DB33003B4302D02369002B61D1E6
:101440002368D97B002907D04A00521819688C46B6
:1014500049466244033A51709A7B002A01D14A46B8
:101460009A734A46DA734B46E168013BCA5C013223
:10147000CA545B4623616368BFF35F8F5A461A60A4
:1014800085F3108881E70023002298460023069206
:101490000793002300209A46A6E7002902D10028DE
:1014A00000D096E70021604600F0B4FD43461A687C
:1014B0005B680692079343469B689A464346DB68FF
:1014C0009846E3684B44013B1B7808931B02034397
:1014D0002361002088E72369002BB1D0069A079B7F
:1014E000921BBB41002B15DB59460491012103914E
:1014F0004946029141460191514620000091FFF773
:10150000B5FEB6E700F05AFB32003B0012184B4123
:10151000002BE9DA0122034B5242E5E7C007002025
:10152000FFFFFF0FFFFFFF7F10B5144C6368002B18
:1015300004D00A211248FFF735FE10BD2300114ADE
:101540001021206800F080FC032000F02BFB03201A
:1015500000F028FC03200C4900F074FBFFF79AFB15
:101560000A4B9C4603232375D0231B061B6860444B
:101570006375074B80006060DC60DAE724030020BD
:10158000DC070020ED1100106D1300104000003446
:10159000C00700200048704724030020F0B54E46E5
:1015A0004546DE465746E0B585B0019310AB1B7843
:1015B0000600039300239946984600927268EFF361
:1015C000108B72B61368002BFCD0BFF35F8F3568A9
:1015D000AC7B002C3DD067002B683F19033FDB1923
:1015E0005A78AA73002A00D1EA73B168474A8C4638
:1015F00000980199A21812016244106051600E997E
:1016000091600F99D16042469A705A701A706B7B44
:101610009A46002B67D022001900A8686B6898478B
:101620002A68002852D0534650465B005344D719CD
:10163000033BB870D118D35C002B00D07B705346AD
:101640000C706B7354454FD0F3681B19013B18782D
:1016500000E000207368BFF35F8F42461A608BF38F
:101660001088002C4FD04B46002B08D1000220439D
:1016700005B0F0BCBB46B246A946A046F0BD039BF0
:10168000002B3ED00E9B00200F99984703000400CA
:101690000D000B4335D000290ADA009A019B121B7A
:1016A000AB4100920193002B0ADB039B994685E72F
:1016B00000F084FA24184D4100940195002DF4DACD
:1016C0000123134C5B4200930194EEE753465B0009
:1016D0005344033BD3189C70D119D25D002A00D02B
:1016E0005A7053460B706C73307D009A019B00F06A
:1016F000EFFA81460028A7D02100306800F00CFDE9
:10170000A2E70020B4E701204042B1E7FFFFFF0F4E
:10171000FFFFFF7FF0B54E464546DE465746E0B533
:1017200085B01099804689461100194300D1D8E050
:10173000D81706005640340006005E400100350010
:10174000241A8D41494640460A6088600F9A0E98D7
:101750004B6008614A6100F031FA0019694100905C
:101760000191002900DACAE0002300259A46434689
:101770005A68EFF3108B72B61368002BFCD0BFF3DE
:101780005F8F43461E68B47B002C00D189E0630064
:101790001B19033B1A009446039333680294634475
:1017A0005A78B273002A00D1F27341468968584AC8
:1017B0008C4600980199A218120162441060516091
:1017C000544991604946D16052469A705A701A70D5
:1017D000777B002F00D174E022003900B068736875
:1017E00098473268002861D003997B00DB195118B3
:1017F000033B8F70D018D35C002B00D079E00470CD
:1018000077732E00BC425DD04346DB681B19013B59
:101810001B7842465268BFF35F8F514611608BF3CD
:101820001088002C67D0002E0DD1029A1B021343A2
:1018300001364A463000D36005B0F0BCBB46B24624
:10184000A946A046F0BD4846036998470500031E17
:1018500001D10023EDE74A461668576832003A4343
:1018600053D0002F0EDA009B019C9B1BBC410093C0
:101870000194002C00DB7AE70123274C5B420093A4
:10188000019474E700F09AF936184F4100960197D9
:10189000002F00DB6BE701231F4C5B420093019498
:1018A00065E700222E0000230292B2E77B00DB19DD
:1018B000033B0398D3189C701118125C002A15D1B1
:1018C0000F7074734346187D009A019B00F000FA74
:1018D000061E00D198E743462100186800F01CFC62
:1018E00092E701240025012200232BE75A700F7094
:1018F000E7E74B7083E7012300265B4299E701236A
:10190000054C5B42009301942EE71E00002390E7F4
:10191000FFFFFF0F21120010FFFFFF7FF0B5040053
:101920000D0006267642F717C64636196F4100B5F8
:1019300084B08F4214D811D000F040F932003B003F
:10194000121A8B41002B15DC002B3ED02000290001
:1019500000F068F904B080BCB846F0BD8642EBD90F
:101960000026002700F02AF932003B00121A8B41B2
:10197000002BE9DD002302930193154B3200009305
:1019800014483B00FFF70AFE0028DFDB00239846DF
:10199000BC46114A114F7B6A9C4504D8B96A8E42F5
:1019A000D4D99C45D2D11168EFF3108072B60B6880
:1019B000002BFCD0BFF35F8F1368BFF35F8F4146EE
:1019C000196080F3108820BFE5E7002ABED0D1E778
:1019D0003D12001024030020DC07002000400540D9
:1019E00070B5060000F0EAF8FA2204000D000023AA
:1019F00030000021920000F0E7FF00196941002942
:101A000002DBFFF78BFF70BD012001494042F8E780
:101A1000FFFFFF7FF0B5EFF30583CE46474680B565
:101A200005000C0085B0002B12D02C4A0020536A10
:101A30009C4203D8926A0130AA4204D305B0C0BCCC
:101A4000B946B046F0BDE01A421E9041C0B2F5E77B
:101A5000234E02930193234B0200009330000B00AE
:101A6000FFF79CFD031EE0DD20BF7168EFF31087D8
:101A700072B60A68002AFCD0BFF35F8FDAB29446D0
:101A80003068427B62451DD0FF221A4051008946D2
:101A900001689144884649464144033989780029C0
:101AA00013D0F1681B0A88464244013A1278DBB22F
:101AB0009A420FD07368BFF35F8F00221A6087F3DA
:101AC0001088B2E7FF221A40EBE732699342F1D166
:101AD0003161EFE7614600F01FFBEBE70040054096
:101AE000240300203D120010F0B5EFF30582D64626
:101AF0004F4646461000C0B51038EFF3108872B656
:101B0000214C2368002BFCD0BFF35F8F0123190009
:101B100081401E4D1F006963AA461D4D29601D4D61
:101B20002E78AC463500C5402F402B4209D1BFF37B
:101B30005F8F276088F31088E0BCBA46B146A8469C
:101B4000F0BD5346144D5F6A83005D59AF420ED31A
:101B5000124A8E439B5862461670BFF35F8F002275
:101B6000226088F31088002BE6D09847E4E70C4BFE
:101B700092009C46624413681360BFF35F8F00239A
:101B8000236088F31088D7E7280100D00040054083
:101B90003C7005400A080020E4070020FC060020F5
:101BA000D03F054010B50100024A0348FFF742F854
:101BB00010BDC046D433001002080020034B596A00
:101BC0000A00986A596A8A42FAD170470040054073
:101BD00070B504000D00124A536A1900966A536AE0
:101BE0008B42FAD13000190024184D41AB4211D874
:101BF0000ED02B000A494A6A9A42FCD307D1084A00
:101C000002E0516A994202D1916AA142F9D370BDB2
:101C1000A642EED9012301246442E5175B42E9E7BD
:101C200000400540064A536A9942FCD807D1044B4C
:101C300002E05A6A914202D19A6A8242F9D370470D
:101C40000040054070B504000D00EFF3108672B639
:101C50001A4A1368002BFCD0BFF35F8F002D1BD0F6
:101C60002000FFF735F8164981420AD02000FFF71F
:101C700037F801212000FFF719F80123A340114A8A
:101C80001360114BA400E550BFF35F8F00220B4B94
:101C90001A6086F3108870BD0B4BA200D55001224C
:101CA000A2400A4920000B7893430B700449FFF7C8
:101CB00035F900212000FEF7F9FFE5E7280100D003
:101CC000E91A001038600540FC0600200A080020D0
:101CD000F0B54F46D6464646C0B507002C4C616A63
:101CE0000D00A66A616AA942FAD18B4208D805D0D4
:101CF0000120E0BCBA46B146A846F0BDB242F7D9D1
:101D0000EFF3108A72B6234801680029FCD0BFF3B4
:101D10005F8F0125BD4020491D4C884609788946C2
:101D20002943C9B28C46414660460870391D1B489C
:101D3000890065630A51B9000B50216A00202942CD
:101D400019D0616A0800A66A616A8142FAD18B42A1
:101D500019D801D1B24216D8CC4516D00C4B1F2051
:101D60001D625D6301230740BB400D4A1E381360AE
:101D700043464A461A70BFF35F8F0022054B1A6034
:101D80008AF31088B5E70020F5E70120F3E7C046A5
:101D900000400540280100D00A080020E407002088
:101DA00080E200E0EFF3108C72B60A490B68002B5A
:101DB000FCD0BFF35F8F01238340074A07481362BB
:101DC00002789A430270BFF35F8F00230B608CF39D
:101DD00010887047280100D0004005400A08002004
:101DE00070B5050014001600002915D00C00002A5B
:101DF00012D080686B689847296800280ED073005D
:101E00009B196200033B1219CB18033A9C70881887
:101E10008A5C002A15D10670200070BD63001B1972
:101E20007200033B9219CB18033A9E7088188A5CA3
:101E3000002A02D104703400EEE75A7004703400B6
:101E4000EAE75A700670E7E730B583600023CCB24A
:101E500043730133047342608373C4730D000068DD
:101E6000012C06D9421C0133DBB2137003329C42B1
:101E7000F9D1FF2129404B0059180023401803389D
:101E8000437030BDF8B5CE46474606000C0080B51D
:101E9000002907D04D0003686D18033D5A19577883
:101EA000002F04D12000C0BCB946B046F8BD79006F
:101EB000C919033988464344597889460021597025
:101EC000517073683A002100806898473368002891
:101ED00014D042469A18947059195B5D002B00D0BB
:101EE00053700F70270049463000FFF7CBFF3900D1
:101EF00002003000FFF774FF0400D3E7424641467A
:101F00005D19AF709A185B5C002B00D06B70147079
:101F1000E9E7C046F0B557464546DE464E46E0B5D1
:101F20000D006B0001685B19DF1E0400C85D83B003
:101F30000192CA19002850D043001B18033BCB184C
:101F40005E78B446002E1AD1019E002E42D0E67B68
:101F5000002E04D073009B19CB18033B5D70A37B4C
:101F6000002B00D1A573E57300282FD100235370F7
:101F700003B0F0BCBB46B246A946A046F0BD720015
:101F80006244033A89184A78904600224A70914682
:101F90005A70010032002000FFF722FF43468246BC
:101FA000002B07D05B0021684344033BCB185A78D1
:101FB000002A16D1424651462000FFF711FF216842
:101FC000019BCA19002BC2D10028CFD043001B1897
:101FD000033BCB1800219970C8E7019B002BB6D1B9
:101FE000C4E75000801803380918487883464846EB
:101FF0004870587041462000FFF7F2FE594680466F
:102000002000FFF73FFF414602002000FFF7E8FEF7
:102010008046CFE7F0B557464546DE464E46E0B52A
:1020200083B00191457B04006B0000685B19DF1EE3
:10203000C15DC219002952D04B005B18033BC31885
:102040005E78B446002E1CD1019E002E44D0E67B63
:10205000002E04D073009B19C318033B5D70A37B53
:10206000002B00D1A573E573002931D1002328008E
:102070005370617303B0F0BCBB46B246A946A0469C
:10208000F0BD72006244033A801842789046002204
:10209000427091465A7020003200FFF7A1FE43467D
:1020A0008246002B07D05B0021684344033BCB18DA
:1020B0005A78002A17D1424651462000FFF790FE79
:1020C000019B01002068C219002BC0D10029CDD08E
:1020D0004B005B18033BC31800209870C6E7019BB8
:1020E000002BB4D1C2E75000801803380918487893
:1020F000834648464870587041462000FFF770FEFE
:10210000594680462000FFF7BDFE414602002000F0
:10211000FFF766FE8046CEE770B5040000292CD09C
:10212000437B8B422ED0056848004018033828189E
:102130008278002A21D053009B18033BEA5CEE18FA
:102140008A4202D11BE0002A08D053009B18033BAF
:10215000EB185A788A42F6D142785A70002301224D
:10216000837043702000FFF7D5FE617B02002000E2
:10217000FFF736FE6073012000E0002070BD437859
:102180003370EBE701221900FFF7C4FE60730120F2
:10219000F4E7C046F8B5CE464746040080B50620B1
:1021A0000E0000F023FA051E51D0524B5249E2189E
:1021B00053425A418023DB039C4692054F4B6244B5
:1021C0001A604F4B1A6010008B689843FBD1494B43
:1021D0008021E3185A4253414A4A5B004900995210
:1021E000062000F003FA3100C00000F067FBC309CD
:1021F00032D14022012190466162A362256BEB0738
:1022000036D427008026E36A00232C3776013E432C
:1022100033600620256300F0E9F94146800000F0B4
:102220004DFB236B05009846DB073BD46022E36A35
:102230005A406E23134033604346236380231022A9
:102240009B013B431A60304B23630323A3642800A4
:10225000C0BCB946B046F8BD2C4A93423FD90023D2
:102260002B492C4A6162A362256B9046EB07C8D5C7
:102270002200C02330329B011343234A06201A60F8
:10228000666AA26AB601B61800F0B0F9224900F0F9
:1022900015FBB6020100300000F010FB0021FFF733
:1022A00097FCAEE72200C02330329B011343164A4D
:1022B00006201A60636AA26A9B019946914400F065
:1022C00095F94B4614499B02994600F0F7FA010034
:1022D000484600F0F3FA0021FFF77AFCA6E77F22D8
:1022E00099018846104001304008190080440300DD
:1022F00082E7C0460080FCBF00C0004000E0004014
:1023000000F00040F407002001030000FEFF000081
:10231000FFFF0000C0FF3F004E0E000030B50C2054
:1023200083B000F0B9F9FEF767FC00280ED0994B96
:10233000994A1A605A609A60DA601A615A619A6121
:10234000DA611A62954A5A6203B030BD944CA067B4
:1023500000F0AAF90122934B1A60636C012BFCD1A7
:102360000322914B1A608E4A936B012BFCD10133EF
:1023700001218E4A8E480093043300F03DF9052375
:102380008C4A009301218C4800F036F98B4B5A6837
:10239000FF2A02D8802252005A6080227D4C824B54
:1023A00021691201854D1A60002907D0606900F08B
:1023B00085FA431C5800C0180338FDD2E0217F4B3A
:1023C00002201A681140802252012A4311601968C4
:1023D000484003210140116004219A681142FCD059
:1023E0008022802192012A4309011160802252003B
:1023F0005A60734B2361734B5968FF2900D85A60A8
:102400000321684A6F4B116002399A681142FCD06F
:10241000E0201A681040802252011A4310601868A8
:102420004840032101400220116066498A68104239
:10243000FCD0802292011343802212011A60802274
:10244000614B52004A606361604B5968FF2900D8B4
:102450005A6080225E4BE16912015C4D1A600029CE
:1024600007D0606900F02AFA431C5800C0180338EE
:10247000FDD2E02255490B681A4080235B012B43B3
:102480001A60802380229B012B4312011A60802254
:10249000414B52004A60E3614E4B5968FF2900D816
:1024A0005A6080224C4B216A12014A4D1A60002961
:1024B00007D0606900F002FA431C5800C0180338C6
:1024C000FDD2E02243490B681A4080235B012B4375
:1024D0001A60802380229B012B4312011A60802303
:1024E00080225B004B602C4BD20223623B4B59682D
:1024F000914200D25A608022394B616A1201374DF5
:102500001A60002907D0606900F0D8F9431C580010
:10251000C0180338FDD2E02230490B681A408023EE
:102520005B012B431A60802380229B012B43120105
:102530001A608023DB024B60184B6362294B5A6898
:10254000FF2A02D8802252005A608022264BA169BD
:102550001201244D1A60002907D0606900F0AEF91D
:10256000431C5800C0180338FDD2E0221D490B68F7
:102570001A4080235B012B431A60802380229B0139
:102580002B4312011A6080235B004B600E4BA3614A
:10259000DAE6C0461C070020006CDC021BB7000016
:1025A000008000403CB0004030B00040002F68592F
:1025B00000800240008C864700C00240308000400E
:1025C000001BB7003C800040405973075480004016
:1025D00054B000406080004060B000406C8000401B
:1025E0006CB000404880004048B00040014B800083
:1025F000C05870471C070020F8B5040021481D0092
:1026000017000E0000F05AF90100380000F056F9EA
:10261000069B29041B0319432368002B20DB1A4B5C
:102620001A4DE21853425A4180235B019C46120323
:10263000174B62441A60174B1A601700AB689F4330
:10264000FBD1C022231D92011A4321232660A060E2
:1026500013602368002BFCDA0823E1601360F8BDE7
:102660003F2322681340B342D9D1A3681B051B0D39
:102670008342D4D1EE22E368D20213408B42CED102
:10268000EDE7C046001BB7000040FDBF00C00040A2
:1026900000E0004000F000408023024A9B0003431A
:1026A000D362704700800540AA23064A1B011360CD
:1026B0002F230549D360054B19605368002BFCDAC2
:1026C0007047C0460040024000B0FA00006002407F
:1026D0002C4B2D4A70B51A602C4A2D4B2D491A608F
:1026E00014008B689C43FBD12B4D2C4EB54208D275
:1026F000013E761BB60808CD984723000134B3424B
:10270000F9D1FFF70BFE264A214B1A60214A936844
:10271000DB43DB01DD09002BF9D14022214B224CA8
:10272000224E9A675A671A67DA66B44208D223685B
:102730002000002B20D00834FEF74AFDB442F6D327
:102740001B4E1C4CC022A168300000F0A7F9A66007
:10275000FEF792FAFEF714FDFEF7E6FE164C174E52
:10276000B44208D2013E361BB60808CC98472B006D
:1027700001359E42F9D170BD0834FEF71BFDB4420D
:10278000D5D3DDE700E00040BFCDFBFEFE7F3C007F
:1027900000F0004000C00040A8030020B803002063
:1027A000FFFFFF0100F0014098030020A803002074
:1027B0000000002000ED00E0B8030020BC03002072
:1027C00000BEFDE710B5FFF7FBFFC0460FB400B534
:1027D000084883B000F094FA049B002B07D005A9A9
:1027E0001800019100F018F8034800F089FA012060
:1027F000FFF7E6FFF83300100834001010B5014869
:10280000FFF7E4FF0C34001010B5002800D110BD14
:1028100000F02AFAFBE7C04610B5094A0300146825
:1028200084B0002C08D0012200910648524203A92E
:10283000A047012004B010BD00F062FA0020F9E7C3
:10284000B00700200928001001480421014B184757
:102850005003002079280010142310B501001888B7
:1028600004331B88984710BD162310B50100188843
:1028700002331B88984710BDF8B54746CE4680B551
:102880000F1E19D014239946043304000025012695
:1028900098464B461888434621681B88984701C4D0
:1028A000431E9841013540420640AF42F1D130000D
:1028B000C0BCB946B046F8BD0126F8E7114A936F8F
:1028C0009B0813D210665166002905D0FFE7FFE789
:1028D000FFE7516F106F704704B5002801D000204A
:1028E000C04300F045FD002104BDC046F0B5146EA4
:1028F000556E576F166FFFF7E5FF146655665767FD
:102900001667F0BD000000D0132370B51D78012DAF
:1029100015D010DD1C48FFF7A7FF1C4C01008022DA
:10292000200000F0BBF8022D06D01948FFF794FFF5
:10293000184B186070BD154C174BA364F5E7164B88
:10294000124C23606360A360E36023616361A36151
:10295000E36123626362A362E36223636363A3634D
:10296000E36323646364A364E36423656365A3652D
:10297000E36523666366A366E36623676367A3670D
:10298000E367A364D1E7C04653440000C0040020BD
:102990004C330000D80700209D29001007B5604681
:1029A00001880A0A0230DF2AFAD1C9B2820804D3A8
:1029B000028840880004104300E00068014A50503B
:1029C000039007BDC004002051434343C9188C46FF
:1029D000110C83B24B4310B4040C614392B280B229
:1029E000504362431C041B0C001910BC59411304D2
:1029F000120CC0185141614470470000132310B5F8
:102A000012481C78FFF730FF0100012C0AD003DDCB
:102A100080220F4800F042F80E48FFF71DFF0E4BD2
:102A2000186010BD0A4C5422200000F037F80B4B00
:102A30006365A365E36523666366A366E366236750
:102A40006367A367E3672362E361E5E7534600003A
:102A5000C00500204C330000D8070020612A001078
:102A600007B5604601880A0A0230DF2AFAD1C9B2E6
:102A7000820804D3028840880004104300E0006804
:102A8000014A5050039007BDC005002001480421B1
:102A9000014B18476003002079280010014B5B6848
:102AA0001847000060030020030010B50800110063
:102AB0001B68984710BDC046F0B546464F46D646FF
:102AC000C0B5437D80460E001700002B46D0002A7B
:102AD0003FDD4B1E9946244B0125002400209A46D9
:102AE0000DE04B461B5D0D3B5A425341325DDBB25C
:102AF0000A2A0BD02B00013401359F421ADD002C2D
:102B0000EFD14346325D1B7D0A2AF3D1002BF1D170
:102B1000A04204DA4346211A1B68301898474346FE
:102B200050461B6802219847013428002B000135CC
:102B30009F42E4DC874204DD4346391A1B683018A3
:102B40009847F619013E33780D3B5A4253414246AD
:102B50001375E0BCBA46B146A846F0BD0368110043
:102B600030009847F5E7C04684340010F0B5DE46E3
:102B700057464E464546E0B585B017001C00060096
:102B80000D00FFF71BF80023304A12184B41002BB1
:102B900058DB2F4908008A4600F0F2FB01906B1CBD
:102BA00003D1300000F0AAFB0500002C25D1294BF1
:102BB0009846294B1C68002C15D0002F20D1274F98
:102BC00002E02469002C0ED02368002BF9D03B686A
:102BD000002B01D0A342F4D120002A003100C047CD
:102BE0002469002CF0D1019B002B27D105B0F0BC4B
:102BF000BB46B246A946A046F0BD194B9846D8E759
:102C0000164B994602ABDF1D0A239B4602E024695E
:102C1000002CE8D02368002BF9D04B461B68002B12
:102C200001D0A342F3D12A0031002000C0475B4607
:102C30000122390020003B70C047E8E7504600F011
:102C40008FFBD3E70122074B5242A2E740420F001D
:102C5000A0030020B92A00108C0700209407002050
:102C6000A92A0010FFFFFF7FF0B5CE46474680B58A
:102C700083B06B460600DD1D2870FEF79FFF002322
:102C80001A4A12184B41002B2BDB194908008846C1
:102C900000F076FB174B81461C68002C14D0164FB1
:102CA00002E02469002C0FD02368002BF9D03B6888
:102CB000002B01D0A342F4D1200001222900FFF70C
:102CC000FBFE2469002CEFD14B46002B05D13000D0
:102CD00003B0C0BCB946B046F0BD404600F040FB72
:102CE000F5E70122054B5242CFE7C04640420F00B4
:102CF000A00300208C07002094070020FFFFFF7F27
:102D000070B5040000F0FAFA00230100050001226A
:102D10002000FFF72BFF084B1C68002C06D06368CF
:102D2000002B05D098472469002CF8D1280070BDED
:102D30002469002CF3D1F9E78C0700200A4A1368B4
:102D4000002B05D10CE01A001B691032002B07D0B4
:102D50009842F8D1002902D10369136001617047DC
:102D60000029FCD01060FAE78C07002010B500F0B5
:102D7000C5F8012010BDC046F0B50D1E15DD0E4B87
:102D80000D271A680D4B4519D31859424B410C4970
:102D90005B005E5E20210478A64207D09369194249
:102DA000FCD101301460A842F5D1F0BD93691942FD
:102DB000FCD11760F2E7C046F80700200080FCBF96
:102DC000F407002030B504000D1E26DD0020102180
:102DD0001B4B013C1A689369194219D10130936960
:102DE0001942FCD1136823548542F4D1154B1B685A
:102DF000002B0CD050239363516B183B34320B40A3
:102E00001100802252010A431360002815D030BD02
:102E10000C4B1B68002BEDD1F7E70A4B1B68002B0E
:102E20000BD050223821064B1B689A635A6B3433FF
:102E30001140802252011343196003204042E6E70B
:102E4000F807002014070020064B10B51B68002B64
:102E500006D00021044A12689163044A106898471A
:102E600010BDC04614070020F807002018070020F6
:102E70001D4BF0B51A68C64698461C4B0E00D31879
:102E800059424B411A4F14331C00050000B53B68F2
:102E9000002807D0002B11D0164B3D601E6080BC6F
:102EA000B846F0BD002BF7D0906300212000FDF75D
:102EB000FDFE20001049FEF731F8EDE720000E4935
:102EC000FDF70EFF01212000FDF7F0FE43465022E2
:102ED00038211B689A635A6B3433114080225201A7
:102EE00013431960D8E7C046F80700200080FCBFF4
:102EF0001407002018070020492E00100C4B10B5B5
:102F00001B780C4B0C4C1B780C4B022100202360CF
:102F1000FDF7CCFD02210120FDF7C8FDE12120686D
:102F20004902FFF737F901210548FFF707FF10BDF8
:102F3000F8340010FC340010F80700200040034073
:102F400070030020F0B5D6464F4646468846C0B5C9
:102F500005240600FDF758FE43461F791C57284BF1
:102F60008146F01843425841264B9A4683009C46BE
:102F700053466246985801222023BA40DB1B013A8F
:102F8000002C32DB9C422DDCA2401500104229D1DE
:102F9000002F1AD043465A7819781202114342463C
:102FA0009B78D2781B040B4312061A4390460022EA
:102FB00041465300C95A4B0B00D10919131912335A
:102FC0009B00013299519742F2D85346624605431D
:102FD0009D504846FDF724FE2000E0BCBA46B146AD
:102FE000A846F0BD0848FFF7F1FB002B02DAF9E72D
:102FF000013BF7D315009D401C000542F8D1C7E7FF
:103000000000D0AFF4060020C8340010F0B55746D9
:103010004E464546DE468946E0B583B00CA90D789C
:103020004946490088464944C900461837003400DB
:10303000DC3701903868CC3483462068C02482464F
:103040000198CC318446A401614421438024A40228
:103050000C60691E8D411F216D420D4016498C4642
:103060006544052B0ED9A02149058C461F21D83671
:103070006046540104430532053B3C600A4035601C
:10308000052BF5D8414652019B0613434944019A4A
:10309000C90050180200DC3213600300D8331D60F1
:1030A0005B4613605346CC30036003B0F0BCBB46B4
:1030B000B246A946A046F0BD80E00000F0B501256B
:1030C0008D400468AC434D0004606C18E4000419A2
:1030D0002600C836002B28D01F68DC3437605F68B4
:1030E00077609F68DB68B76023606D18EB001D0098
:1030F0008024D035451964012C4380252D06256098
:10310000256001250F4C2E008C4084600C1DA640CC
:10311000802408318D401F21A4010443C0180A40B7
:10312000D830266025600260F0BD80277F023760BE
:10313000F8277F027760C027DC343F03B760236045
:10314000D3E7C04601010101F8B5DE4657464E46B9
:1031500045468346E0B505200C00FFF747FA060018
:10316000600821008019FFF7A9FB430098468044BE
:10317000070005214046FFF7A1FB3B1A9A46204B6A
:103180008146700080199C4234D81E49FFF796FB97
:10319000451C5B461C680023E366226804335340E9
:1031A00006221A4080235B0123431A605346E361E1
:1031B0004B462362434601204F2B03D95021404602
:1031C000FFF77CFBA0232200E0508023E06F7C32DD
:1031D00045402D045B0113432D0C1D600123390074
:1031E0003000E366FFF76AFBF0BCBB46B246A94677
:1031F000A046F8BD0449FFF761FB451CC9E7C0467E
:103200003F420F008096980040787D01104A70B5CB
:10321000821A53425A41072352429A430D4B1032AD
:103220001A600D4B0D4C1A601500A3689D432B1EB0
:10323000FAD166240268FF340571D5661460633CD8
:103240008833FF3CD5639563D450FFF77DFF70BD95
:103250008803002000E0004000F0004000C0004073
:1032600003680020D86600290DD0802118688900E5
:1032700041400A48014080204001184301609A60A3
:103280000122DA66704741211A684A4003490A4020
:103290008021490119430A60F2E7C046410200005B
:1032A00070B5114E0500841B63425C4163000F48FA
:1032B0001B199B001D50C3185A6028000A000121E9
:1032C000FFF7CEFF2B680A4A17341A63B54208D0BD
:1032D00008492000FDF704FD01212000FDF7E6FC70
:1032E00070BD0549F5E7C04690030020980700200F
:1032F00064060000850100202502002010B5830728
:103300000AD00300032102E001330B4205D01A78F2
:10331000002AF9D1181A10BD030019680C4A0D4C87
:103320008A188A4322420FD15968094A04338A18FD
:103330008A43224208D15968054A04338A188A43CD
:103340002242F1D000E001331A78002AFBD1E1E7F4
:10335000FFFEFEFE80808080F8B5C04600000000C1
:1033600001B40248844601BC604700BF5D010020F3
:1033700001B40248844601BC604700BFC50200207A
:1033800001B40248844601BC604700BFC100002070
:10339000983300101D0000000F000E001A000F00EF
:1033A0001A000F000F000E000E000F000F001A0091
:1033B0000F001A008F0020E0808027A0E6A03600D2
:1033C000C2A02080C3A0E2400240A6A02AA05C00C8
:1033D00049A00000486172647761726520616C6188
:1033E000726D20256420616C726561647920636C64
:1033F00061696D65640000000A2A2A2A2050414E46
:103400004943202A2A2A0A000A00000048617264FF
:10341000206173736572740052656C656173650039
:10342000626F6F74325F7732357130383000000070
:10343000312E352E310000007069636F00000000EE
:10344000717561647261747572655F656E636F64D6
:10345000657200004F637420323420323032330002
:1034600006005250BBFF3CB63834001006005250E4
:10347000E182887F2034001006005250D3F075425C
:10348000183400100D0A0000554152542073746422
:10349000696E000055415254207374646F75740056
:1034A0005541525420737464696E202F20737464E4
:1034B0006F7574000600525053B4F4A1A03400108C
:1034C00008005250920000004E6F2070726F6772B9
:0C34D000616D20737061636500000000F6
:1034DC00AC020010A0020010940200106034001026
:1034EC00880200106C34001078340010B4340010D2
:0434FC00C0340010C8
:10350000F0B5C646150000B504001E000268EFF3D2
:10351000108172B61368002BFCD0BFF35F8F0423B9
:10352000E356002B2DDB2268BFF35F8F0020106075
:1035300081F31088D0221206127852B290469A4235
:1035400003D1002080BCB846F0BD00270BE0236803
:10355000BFF35F8F1F6081F310882800310000F0F7
:10356000D3F80028EDD12268EFF3108172B613680A
:10357000002BFCD0BFF35F8F23797F2BE7D9434625
:1035800002E0D0231B061B6823712368BFF35F8F03
:1035900000221A6081F310880120D3E70268EFF35C
:1035A000108172B61368002BFCD0BFF35F8FFF232E
:1035B00003710368BFF35F8F00221A6081F31088E4
:1035C00040BF7047F0B5C646254D00B52F683E6830
:1035D000F46A002C26D040231A0022409046234251
:1035E00023D0736D2B7A002B05D06B680221380035
:1035F000984700232B72630524D5736EA30500D56D
:10360000336E630705D5012300212B7238006B68E8
:103610009847A30606D5336D012301212B7238008C
:103620006B68984780BCB846F0BD63050AD5736ED9
:103630002B7A002BE2D06B68022138009847434672
:103640002B72DBE7A305DCD5336E2B7A002BD8D0A9
:103650006B6802212868984700232B72D1E7C04687
:1036600098070020F0B5C646254D00B5EF683E68C6
:10367000F46A002C26D040231A00224090462342B0
:1036800023D0736D2B7D002B05D02B6902213800D0
:10369000984700232B75630524D5736EA30500D5C9
:1036A000336E630705D5012300212B7538002B6984
:1036B0009847A30606D5336D012301212B753800E9
:1036C0002B69984780BCB846F0BD63050AD5736E78
:1036D0002B7D002BE2D02B6902213800984743460E
:1036E0002B75DBE7A305DCD5336E2B7D002BD8D003
:1036F0002B690221E868984700232B75D1E7C04663
:10370000980700207047C04601B40248844601BCB7
:10371000604700BF151A00101000000000000000F4
:103720000000010000000000000000000000020096
:103730000000000000000000000003000000000086
:10374000000000000000FF000000000001B5486814
:1037500001318E460047704609380149884701BD4E
:10376000CD1000103C03002000000000C00300202A
:10377000480700200000000000000000580700205B
:103780000000000000000000100000000000000029
:10379000503300004C33000054330000523300001B
:1037A0004D5300004D4300005334000043340000EB
:1037B000792D001000000000C52D0010712E0010A2
:1037C0000000000000010000004004400000000074
:1037D0000080044000000000000000000000000025
:1037E00000000000000000008D2A00104928001091
:0C37F00009290010FD2900103103001011
:04000005100001E9FD
:00000001FF
