:020000041000EA
:1000000000B5324B212058609868022188439860DF
:10001000D860186158612E4B002199600221596106
:100020000121F02299502B49196001219960352056
:1000300000F044F80222904214D00621196600F024
:1000400034F8196E01211966002018661A6600F04E
:100050002CF8196E196E196E052000F02FF8012189
:100060000842F9D1002199601B49196000215960AB
:100070001A491B48016001219960EB211966A021F2
:10008000196600F012F800219960164914480160C1
:100090000121996001BC002800D000471248134993
:1000A000086003C880F30888084703B5996A0420EC
:1000B0000142FBD001200142F8D103BD02B5186610
:1000C0001866FFF7F2FF186E186E02BD00000240BE
:1000D000000000180000070000035F00212200005C
:1000E000F4000018222000A00001001008ED00E03C
:1000F00000000000000000000000000074B24E7A12
:1001000000200420F7010010C3010010C5010010F9
:10011000C1010010C1010010C1010010C101001097
:10012000C1010010C1010010C1010010C701001081
:10013000C1010010C1010010C9010010CB01001065
:10014000CD010010CD010010CD010010CD01001037
:10015000CD010010CD010010CD010010CD01001027
:10016000CD010010CD010010CD010010CD01001017
:10017000CD010010CD010010CD010010CD01001007
:10018000CD010010CD010010CD010010CD010010F7
:10019000CD010010CD010010CD010010CD010010E7
:1001A000CD010010CD010010CD010010CD010010D7
:1001B000CD010010CD010010CD010010CD010010C7
:1001C00000BE00BE00BE00BE00BE00BEEFF3058054
:1001D000103800BEF2EB8871808E0010A08E0010E7
:1001E0003402001090A31AE700201F49086006C8D7
:1001F00081F3088810471D48006800282FD10DA4FE
:100200000ECC002902D000F012F8F9E71849194A7B
:10021000002000E001C19142FCD1174988471749ED
:1002200088471749884700BEFDE701C901C29A42C5
:10023000FBD37047A08E0010C0000020A810002043
:10024000889E00100000042000000420889E0010FA
:10025000001004200010042000000000704709482E
:1002600004F05AFC0047000008ED00E0000000D058
:10027000A8100020901E0020DD330010691000102F
:10028000D13400105756000006005250ABB36053F3
:10029000408C001006005250861C0302508C001047
:1002A000060052505422A29D5C8C00100500525052
:1002B000DE65F468889E0010F8B5C0460448054B1A
:1002C00010B5834203D0044B002B00D0984710BDDB
:1002D000A8100020A81000200000000006480749D0
:1002E000091A8B10C90FC91810B5491003D0044B57
:1002F000002B00D0984710BDA8100020A8100020A7
:100300000000000010B5074C2378002B09D1FFF73F
:10031000D5FF054B002B02D0044800E000BF0123AD
:10032000237010BDC81300200000000008880010D2
:10033000054B10B5002B03D00449054800E000BF71
:10034000FFF7CCFF10BDC04600000000CC1300201A
:1003500008880010024A1368013313607047C046D2
:10036000101E002030B5417884784B065B0F9A0050
:100370009A180F2319405200521816490A70032286
:10038000210911408D0049191C4049000919124CDE
:10039000217001790C092240940012191940520071
:1003A00052180E490A704179CA06D20F94001219E8
:1003B000194001395200521809490A7009498279D5
:1003C0000878134012091B189000121852009B184D
:1003D0000B7030BD841E00207F1E00207C1E00207C
:1003E000851E00208D1E002030B5132500238BB004
:1003F000122200216D4405A82B7005F06FFA02F05F
:1004000005FB0023174A80185941002921DB0123ED
:10041000154C2A000290039100936821200008F0F7
:1004200023F802F0F3FA00230E4A801859410029FC
:1004300013DB01230290039100936821113305AA75
:10044000200008F08BF805A8FFF78CFF01200BB007
:1004500030BD012005494042D9E70120034940420F
:10046000E7E7C0468813000080100020FFFFFF7FF1
:10047000F0B5DE4657464E464546E0B5CDB006934C
:1004800056AB1B780A26079357AB1B78FA4D089397
:1004900058AB1B788146099359AB1B7804910A939A
:1004A0000AAB9C461B23664433709B4600239A4646
:1004B0005D210592009332000133280007F06CFFA4
:1004C00034002123524623701E005D210092203B00
:1004D0002200280007F060FF3023524623705D2180
:1004E00000922F3B22002800039407F055FFE34BB6
:1004F0000DAA904603CB03C21B7826AC137052465C
:1005000009235D2100922800424607F045FF4A4634
:10051000DB49200004F0BCFA200008F097F8210025
:1005200007000200404608F0BFF852463B005D213C
:1005300000922800424607F02FFF0AAB9C460B278B
:100540000D23524667443B705D2100920C3B3A00FC
:10055000280007F021FF0A2352463B705D210092DC
:10056000093B3A00280007F017FF5A460399012378
:100570000A705246280000920A005D2107F00CFF25
:100580003300039E5D2133705346320000932800F0
:10059000013307F001FF5346320033705D210093B1
:1005A0002800013307F0F8FE4B46002B00D13BE357
:1005B000FA239B009A46994500D3EEE24B46C72B9F
:1005C00000D9D8E2642B00D86BE3200008F03EF895
:1005D0000822AC49201805F087F94846642104F048
:1005E000F5FA89464B461D2B00D8F3E2200008F0AF
:1005F0002DF80A218246484604F0E8FAA24B800012
:10060000C1585346E01807F0CDFF0222031B9F4953
:100610009A4605F069F948460A2104F0D7FA894656
:10062000002900D049E3200008F010F8210082469C
:100630000200404608F038F80023994642460093ED
:100640005D215346280007F0A7FE49460D233A00D6
:100650003B70280000910C3B5D3107F09DFE494640
:100660000A233A003B7028000091093B5D3107F0F6
:1006700093FE2100864B45CB45C11B880D220B9173
:1006800040460B80210008F00FF848460D234246F3
:1006900000905D21280007F07FFE7E48642183469C
:1006A000006804F093FA76490200200005F022FB6E
:1006B000200007F0CBFF210082460200404607F0F1
:1006C000F3FF48465346424600905D21280007F05C
:1006D00063FE7149200005F00DFB200007F0B6FF16
:1006E000210082460200404607F0DEFF484653469E
:1006F000424600905D21280007F04EFE58466421D6
:10070000006804F063FA20000A005D4905F0F2FA7F
:10071000200007F09BFF210082460200404607F0C0
:10072000C3FF48465346424600905D21280007F02B
:1007300033FE48460D2201233A705D213A000090B5
:10074000280007F029FE0A2348461E003B703A00A5
:10075000093B00905D21280007F01EFE059A4849DC
:10076000200004F095F9200007F070FF2100824678
:100770000200404607F098FF484653464246009024
:100780005D21280007F008FE2F20210083462080ED
:100790000122404607F088FF484601234246009068
:1007A0005D21280007F0F8FD069A3549200005F084
:1007B000A1FA200007F04AFF2100824602004046CD
:1007C00007F072FF48465346424600905D212800DC
:1007D00007F0E2FD5846210020800122404607F044
:1007E00063FF48460123424600905D21280007F040
:1007F000D3FD079A2249200005F07CFA200007F07B
:1008000025FF210082460200404607F04DFF484682
:100810005346424600905D21280007F0BDFD20238D
:10082000210023800122404607F03EFF4846012375
:10083000424600905D21280007F0AEFD089A10495D
:10084000200005F057FA200007F000FF2100824643
:100850000200404607F028FF4846534642460090B3
:100860005D21280007F098FD3A2321002380012212
:10087000404607F019FF11E08010002008880010A2
:100880001488001034880010300F00209888001061
:1008900068880010A80F00207888001048460123BF
:1008A000424600905D21280007F076FD099AEA494A
:1008B000200005F01FFA200007F0C8FE2100824644
:1008C0000200404607F0F0FE48465346424600907C
:1008D0005D21280007F060FD48460D2201233A7093
:1008E0005D213A000090280007F056FD330048468D
:1008F0003E703A0000905D212800093B07F04CFD56
:100900002000D64B210044CB44C01B780822037042
:10091000404607F0C9FE48464246009008235D2144
:10092000280007F039FD48460D2201233A705D2169
:100930003A000090280007F02FFD48460A233A00AD
:100940003B705D210090093B280007F025FD200049
:10095000C34B210044CB44C00722404607F0A4FE0D
:1009600048460723424600905D21280007F014FD09
:100970000A9AB949200004F08BF8200007F066FEBF
:10098000210083460200404607F08EFE48465B4643
:10099000424600905D21280007F0FEFC48460D22EB
:1009A00001233A705D213A000090280007F0F4FC22
:1009B00048460A233A003B705D210090093B28001D
:1009C00007F0EAFC1B20039E0123307048463200EA
:1009D00000905D21280007F0DFFC21203070834665
:1009E00048463200009001235D21280007F0D4FC26
:1009F00048463023320033705D2100902F3B2800A1
:100A0000039607F0C9FC2000964B210044CB44C05C
:100A10001B8809220380404607F046FE484609230A
:100A2000424600905D21280007F0B6FC049A8A49EE
:100A3000200004F02DF8200007F008FE2100824677
:100A40000200404607F030FE4846534642460090BA
:100A50005D21280007F0A0FC48460D2201233A70D2
:100A60005D213A000090280007F096FC0A233B70B5
:100A70004B463A0000935D212800013307F08CFCBF
:100A80001B20039E012330704846320000905D21F8
:100A9000280007F081FC584630704846320000902C
:100AA00001235D21280007F077FC484632003070B2
:100AB0005D21009001232800039607F06DFC2000C3
:100AC000694B46CB46C00B9945CB45C10A001988F6
:100AD000404611809B78210093701A2207F0E4FDB4
:100AE0004946424600911A2328005D3107F054FC24
:100AF0000D223A704A46012300925D213A002800F7
:100B000007F04AFC0A244B463A003C705D210093F2
:100B10002800013307F040FC1D23039E5D21337044
:100B20004B46320000932800013307F035FC562372
:100B300033704B46320000935D212800013307F0EB
:100B40002BFC662333704B46320000935D21280056
:100B5000013307F021FC4B463470320000935D21D5
:100B60002800013307F018FC4DB0F0BCBB46B2467C
:100B7000A946A046F0BD200007F068FD642182462A
:100B8000484604F023F8394B8000C1585346E0181A
:100B900007F008FD0A2236491DE5200007F056FD42
:100BA00051468346484604F011F8304B8000C15846
:100BB0005B46E01807F0F6FC06222E4904F094FE8E
:100BC0004846514604F002F889464B46C72B00D8E8
:100BD000F8E4D0E7142B2DD800D17DE00F2B51D9AC
:100BE000200007F033FD062282462349201804F036
:100BF0007BFE4B461D4A0A3B9B0099585346581DA5
:100C0000201807F01BFD48460A2103F0DFFF894644
:100C10004B46002B00D106E54B469900134B2000B4
:100C2000C95807F0E5FCFEE4144B1A6826921B79BC
:100C30002371F8E4200007F009FD0722104920186D
:100C400004F052FE48460A2103F0C0FF89464B4695
:100C5000002BE1D1E7E4C046148800107C88001026
:100C600088880010908800109C880010800F002059
:100C7000288800102088001058880010188800105C
:100C8000488800100A2B30D91D4A0A3B9B0099580E
:100C9000200007F0ADFC48460A2103F097FF894683
:100CA000D5E7642B00D09DE4200007F0CFFC05229F
:100CB0001449201804F018FEB5E450460130032210
:100CC0001149201804F010FE4B4699000F4B2000EC
:100CD000C95807F08DFCA6E4200007F0B7FC0722F6
:100CE0000B49201804F000FE9DE40A2BAFD1200030
:100CF00007F0ACFC05220749201804F0F5FD92E44A
:100D0000580F00203C88001044880010800F0020FD
:100D10005088001060880010F0B5D64646464F4611
:100D20005A4B01259946C0B5594C82B001234A4619
:100D30005E212000009507F02FFB0023554E009305
:100D4000320001335E21200007F0B2FB524A3378B3
:100D5000904613709A09154200D07EE07F224F4DD5
:100D60004F4F29789B06DB0F0A403B70002B00D0C9
:100D70007EE008339A4364202A7001F03FFD01238E
:100D80004A465C21009320009A4607F005FB0023A9
:100D9000320000935C210133200007F089FB4246BA
:100DA0003378137052469B0813403B706AD12B78FE
:100DB0003F32934364202B7001F020FD01234A460B
:100DC0005D21009320009A4607F0E6FA00233200E6
:100DD0005D2100932000013307F06AFB4246514633
:100DE000337813709A09114248D12A781F318A4307
:100DF0009B06DB0F3B703ED110339A4364202A7070
:100E000001F0FCFC274E2B78002533700123984617
:100E1000254F00933A005A21200007F0BDFA320016
:100E200001235A212000009507F0B6FA642001F052
:100E3000E5FC43463A0000935E21200007F0ACFA3F
:100E4000012332005E212000009507F0A5FA02B0D0
:100E5000E0BCBA46B146A846F0BD80210F4D104F08
:100E60002A789B06DB0F0A433B70002B00D180E7FA
:100E700008231A437FE710231A43BFE720212A786B
:100E80000A43B5E740222B78134393E762890010A9
:100E900080100020381E00208A1E00207E1E0020A8
:100EA000781E00203819002061890010F0B583B049
:100EB000FFF79AFA314B324C1B78324E2370324B8B
:100EC00001AD1B786370314B1B78A370304B1B78DE
:100ED000E370304B1B7823712F4B1B7863712F4BC2
:100EE0001A881B6852BA190E1B0CE3712C4B228115
:100EF0001A881B68A17152BA190E1B0CA172A2812B
:100F0000E37233681A0E2A701A0CEB706A701A0AB0
:100F1000244BAA7019684A7808788B781202024329
:100F2000C8781B041A430006104300BA3060EFF380
:100F3000108372B61C4F3B6084239B02984217D0EB
:100F40000E22210007F000FC802180203368490137
:100F50000E338002336007F017FC80200422290042
:100F6000800207F0F1FB3B6883F3108803B0F0BD0B
:100F70008021490107F008FC3068E1E78D1E002060
:100F8000781900202C0F0020851E00207C1E0020D8
:100F90007F1E0020841E00207C0F0020041E0020E5
:100FA000201E0020740F0020FC1D0020F0B54E46CE
:100FB000DE4657464546284BE0B59A46274B002665
:100FC0009946274B89B09B46264B05961B689C1972
:100FD000A0799846E37900061B041843637A4146DA
:100FE0001843237A01361B02184353461860A57A2A
:100FF000E37A2D061B041D43637B1D43237B1B02E9
:101000001D434B461D60895DA378079164210693BB
:1010100003F0DCFD64210700280003F0D7FD6379AD
:10102000059D0393237939000293E37844460193A5
:10103000635D069A0093079BFFF71AFA5B460E2141
:10104000186803F0C3FD8642BED909B0F0BCBB46A8
:10105000B246A946A046F0BD041E0020201E002076
:101060002C0F0020780F0020F0B5DE464E46454696
:1010700057460023E0B5F24A8BB01370D02504F038
:1010800045FE022000F012FC042380262D060022DB
:101090000121AB62022000F0F1FBB604192000F040
:1010A00005FC1B206E62AE6100F000FC80231B0576
:1010B0006B621C20AB6100F0F9FB8023E14C5B0507
:1010C0006B62E149AB61200007F03CF9102000F0B1
:1010D000EDFB112000F0EAFB0321102000F0B6FB2D
:1010E0000321112000F0B2FB00220121102000F0AA
:1010F000C5FB00220121112000F0C0FBD34B6E6123
:101100001868417803788278090219431204114360
:101110008C22C37852001B060B431BBA591E914206
:1011200000D33CE3CA4A09AD1360CA4801F066FB2C
:10113000D023802201261B0612055A615A21012361
:10114000C54A2000009607F027F900232A000093E3
:101150005A212000013307F0ABF9002801DBBF4B17
:101160001E70D026802736063F056420B76101F047
:1011700045FB7761012601235B21B74A20000096D9
:1011800007F00AF900232A0000935B2101332000B5
:1011900007F08EF9B24B9846002800DB1E70D0266F
:1011A000802736063F056420B76101F027FB776191
:1011B000012601235C21A84A2000009607F0ECF8E4
:1011C00000232A0000935C210133200007F070F90E
:1011D000A44B9946002800DADEE21E700223A249E1
:1011E0000A78049113430B70D026802736063F05FA
:1011F0006420B76101F002FB7761012601235D21C4
:10120000954A2000009607F0C7F800232A000093B3
:101210005D212000013307F04BF9002806DB934BDA
:1012200004991E7020230A7813430B70D026802760
:1012300036063F056420B76101F0E0FA77610126C8
:1012400001235E21844A2000009607F0A5F80023C0
:101250002A0000935E212000013307F029F9844D14
:10126000002800DB2E70D0238022FA201B061205F6
:101270009A61800001F0C2FA43461B78002B04D02B
:101280004B461B78002B00D07FE27A4B1A00059367
:1012900001231370D0231B065B6801225B0705D472
:1012A00004990B7893430B70059B1A70FFF734FD7C
:1012B000A0230026704D5C212B709F3B6F4A00934A
:1012C000200007F069F85C2101232A000096200025
:1012D00007F062F801F06AF8FA22694B019602936E
:1012E000684B92000093002301F022F9664B674A95
:1012F0001B6858481360914601F080FA644AD02672
:101300009346644A644B92461B7836067168012204
:10131000490705D4049801789143017005990A7032
:10132000022B00D1CDE0022B00D96EE1002B00D1C1
:10133000AAE1012300275C21584A00932000984627
:1013400007F02AF82A0004235C212000009707F008
:10135000AFF864202B681BBA5843514B196803F04F
:1013600035FC504B64211B6858435B4618604E4B5C
:101370001B685843069303F029FC534618600A2063
:1013800001F03CFA5B461B685A211BBA2B604346AE
:10139000464A0093200006F0FFFF04232A005A214A
:1013A0002000009706F0F8FF0A2001F027FA5346C4
:1013B0001B685A211BBA2B6043463D4A009320000C
:1013C00006F0EAFF04232A005A212000009706F0C5
:1013D000E3FF0A2001F012FA43465A21274A0093FC
:1013E000200006F0D9FF5A2101232A00200000978F
:1013F00007F05EF840222F4B0A201B7813432E4A39
:101400002B70137001F0FAF943465A211B4A0093DE
:10141000200006F0C1FF01232A005A212000009776
:1014200006F0BAFF02231C4A13704A46164B1B688B
:101430001360716802230122490700D46AE73DE086
:101440007C0F002080100020A0860100740F002077
:101450002C0F002010270000628900107D1E002044
:10146000881E00207B1E00207E1E0020891E00207A
:10147000801E0020861E002038190020638900107D
:10148000B013002055030010101E00207419002016
:10149000041E0020201E0020751E00205E89001002
:1014A000280F0020700F0020A80F00205F89001077
:1014B00060890010381E00208A1E0020022B00D0F8
:1014C00031E74946C44A09681268521AFA214900AC
:1014D0008A4200D21AE7012300279939BF4A0093B4
:1014E000FF392000984606F057FF2A0004235C21AC
:1014F0000097200006F0DCFF64202B681BBA5843DD
:10150000B74B196803F062FBB64B64211B68584364
:101510005B461860B44B1B685843069303F056FBB8
:10152000534618600A2001F069F95B461B685A218E
:101530001BBA2B604346AD4A0093200006F02CFFF7
:1015400004232A005A210097200006F025FF0A20D4
:1015500001F054F953461B685A211BBA2B604346CD
:10156000A34A0093200006F017FF04232A005A2103
:101570000097200006F010FF0A2001F03FF94346D3
:101580005A219C4A0093200006F006FF5A210123AD
:101590002A000097200006F08BFF4022964B0A207D
:1015A0001B781343954A2B70137001F027F94346BB
:1015B0005A21904A0093200006F0EEFE01232A00F3
:1015C0005A210097200006F0E7FE43465C218C4A32
:1015D0000093200006F0E0FE012300975C2120002C
:1015E000854A06F065FF844B1F78844B1F70434685
:1015F0003F091F40834B1F7000D189E0824B1B784D
:101600004946754A12680A6080E6032B00D07DE6E1
:1016100080235B05B36153466421186803F0D6FA52
:101620007A4B642118605B46186803F0CFFA784B58
:101630001860FEF7D9FEFFF739FCFA20C00001F070
:10164000DDF87349734B0968734A06916F491B783B
:1016500009681278079171490798097803917049D0
:10166000097802916F49097801916F4909780091D1
:101670000699FEF7FDFE694B684A1B78013313702B
:101680000023614A137041E64A46534B12681B68B7
:101690009B1A664A934227D8012701235C21584AA6
:1016A0002000009706F078FE0023534A00939846E6
:1016B0005C210133200006F0FBFE4F4B4F4A1B78A4
:1016C0001370504A5B093B40137007D04246584B99
:1016D0001A6080235B0573614B4B1F70642001F01F
:1016E0008DF8494B1B7811E6FFF716FB4A463A4B3B
:1016F0001B681360FEF778FE4A4B1B78002B03D162
:10170000474B1B78012B3DD94A4801F077F8C3E7D6
:1017100043465A21374A00932000012306F03CFE3D
:1017200001232A005A212000009706F0C1FE402222
:10173000314B5A211B7820009343304A2B70137091
:1017400043462C4A0093012306F026FE01232A007B
:101750005A212000009706F01FFEA0232B7043465D
:101760005C21244A00932000012306F015FE01238A
:101770002A005C212000009706F00EFE0323224A77
:1017800013703DE7FFF712FCBEE72B4A2B7805925A
:10179000002B00D07EE578E5284B049324E58422D5
:1017A000274B92021A60274B0993EFF3108372B60E
:1017B00080218020244E49018002336006F0E4FF3E
:1017C000802009AD04222900800206F0BDFF3368A5
:1017D00083F31088A9E4C046101E00205E89001023
:1017E000280F0020700F0020A80F00205F89001034
:1017F0006089001063890010381E00208A1E0020B6
:1018000062890010781E0020751E0020241E002012
:10181000081E0020851E00207C1E00207C0F00205A
:10182000841E00207F1E00208D1E00200F27000038
:101830004819002030750000861E00207E1E002002
:101840002C0F002000021000FC1D0020094A83001C
:1018500094464022634410B51C68C0006240C02416
:1018600014408022520113431C60034B9C46604489
:10187000416010BD04C00140004001400A4B80009F
:101880009C4604236044002901D00C230821002A2F
:1018900000D10B00026853400C221A4080235B01E8
:1018A000184302607047C04604C001400123D022A3
:1018B0008340120693629361094A83009446402252
:1018C00063441968C0004A40C0211140802252017F
:1018D00013431960034B9C460523604443607047E3
:1018E00004C0014000400140024B18688007C00F4F
:1018F0007047C04600C0064070B5EFF3108C72B65A
:101900000D4D2B68002BFCD0BFF35F8F0724CB0855
:10191000C618C05C01230C40A3401C0004400342D5
:1019200007D103433370BFF35F8F2C608CF31088B3
:1019300070BD100001F0D0FD2C0100D0F8B5474675
:10194000CE46884680B5EFF3108C72B6214D2C68D8
:10195000002CFCD0BFF35F8F9A422CD8D408072705
:10196000055D061901241740BC402C421FD00721F9
:101970000127894609E0D408055D06194C4639005F
:101980001440A1400C00294211D001329342F2D2FE
:1019900001204042BFF35F8F00220E4B1A608CF390
:1019A000108800280FDBC0BCB946B046F8BD2C43F8
:1019B00010003470EEE7BFF35F8F00232B608CF3D1
:1019C0001088012040424346002BECD0089801F0DB
:1019D00083FDC0462C0100D00021044B044ABFF314
:1019E0005F8F02C39342FAD17047C046000100D016
:1019F000800100D0044A1078431CDBB2172B00D9B9
:101A0000102313707047C046AC0F002000B5054B83
:101A100083B00100009318221F230348FFF78EFFB5
:101A200003B000BD648900104419002001238340E5
:101A3000002904D0034A1360034A13607047034A25
:101A40001360FBE780E200E000E100E080E100E0FD
:101A500001238340014A13607047C04600E200E062
:101A6000084B10309B688000C358002B07D0064AF3
:101A700000209B1A2F229A424041C0B2704700209A
:101A8000FCE7C04600ED00E0B00F0020024B103034
:101A90009B688000C058704700ED00E070B50D00F5
:101AA000EFF3108672B60F4A1368002BFCD0BFF319
:101AB0005F8F0D4B10309B6884001B590B4A93427B
:101AC00003D09D4201D001F01FFD074B9B681D51C3
:101AD000BFF35F8FBFF35F8F0022024B1A6086F364
:101AE000108870BD240100D000ED00E0CD01001091
:101AF000F0B557464E46DE464546E0B585B0060091
:101B000002911700EFF3108B72B6674A1368002B2F
:101B1000FCD0BFF35F8F0025644B5D579A46002DC4
:101B200000DAA4E06B00624C03935B199B009846BB
:101B3000A146C1444B4652469B79103613705D4B0B
:101B4000B2009B68019299580B1B2F2B34D95A4B2A
:101B5000994200D0A4E0039B584A9C46584B6544E8
:101B6000AD006353434602336519E418554B012118
:101B7000043B1B1B1B055B0D13436B80524BEF712A
:101B8000AB80FF23AB71029BAB604B460B4319004C
:101B9000484B019A9B689950BFF35F8FBFF35F8FEB
:101BA0000022414B1A608BF3108805B0F0BCBB4695
:101BB000B246A946A046F0BD01200A008243D3796F
:101BC000BB422FD845464E46130040491B1B5B4184
:101BD0005943090D3A4B63533A4B02356519043B9F
:101BE0005B1B1B05354D5B0D2B4373800426B446F0
:101BF000E0444444131F1B1B4C46A17102991B0572
:101C0000A16049465B0D2B43A380314BE771014333
:101C10001360BDE75800C01880002018C679BE4286
:101C20002BD902000623D356002BF3DA101D82466F
:101C30002848804604267642B446E14450464E4643
:101C4000361A3005400D824656461C4895710643AB
:101C50009680039A944665441D4AAD00641922603B
:101C60004246A371029BA280E771A36090E701F056
:101C70004BFC002553465D5754E7101D8246908863
:101C80004005001584464046D4446646043020187A
:101C9000301AE0260005400D360230438046C9E781
:101CA00001F032FC57E7C046240100D0811E00201D
:101CB000B00F002000ED00E0CD01001000E0FFFFBC
:101CC00000A1FFFFE00F002001BDFFFFAAAA000056
:101CD0000148804701BD0000F0B5DE4657464E463C
:101CE0004546E0B50C0083B0EFF3108972B6584A50
:101CF0001368002BFCD0BFF35F8F564B9A6803002C
:101D000010339F00D559544A9046954232D0A5428F
:101D100043D0524EAA1B2F2A2CD801228240924631
:101D200051464F4A12681140019151464D4A116087
:101D3000BFF35F8FEFF305829346002A33D101236F
:101D40002A009A4393689C4208D177E04B005B18C5
:101D50009B00F3189968A1422AD01A000621515617
:101D60000029F3DA019B002B19D052463E4B1A6032
:101D70003B4B1A60374B9B68DD51BFF35F8FBFF35E
:101D80005F8F0022324B1A6089F3108803B0F0BCD9
:101D9000BB46B246A946A046F0BD1500EAE752464A
:101DA000304B1A60E6E79342C9D001F0ADFBC6E7BD
:101DB00006215956002921DB4A00501880003418AA
:101DC0008046A0689860E079D87106202056987106
:101DD000002824DBA488F01A640524154444001963
:101DE000E0240005400D24022043988052181F4B28
:101DF0009200B6181A781970B271B3E759460029E3
:101E00000FD1FF3191711A49918018490A789A715E
:101E1000184A9B1B5B415A43120D0A70A2E71648F1
:101E2000E3E7164A1649D21A083A5002400D014318
:101E30009980144952080A43DA8093E706215156E3
:101E400013000029B8DA5A46002AEAD14546DCE7F1
:101E5000240100D000ED00E0CD010010B00F002003
:101E600000E100E080E100E080E200E0811E00206F
:101E700001BDFFFFAAAA000001BD0000EA0F00207B
:101E800000F0FFFF00F8FFFF70B5EFF305810124BC
:101E90000443EFF3108C72B6214A1368002BFCD078
:101EA000BFF35F8F1F4B05001F4AED1A6D416A4358
:101EB000120D1E4D8900AE6852B27658A6421CD053
:101EC0000621595691421CD012215956914222D0D6
:101ED0001E215956914220D02A215956032491425D
:101EE00010D0134B19781A708171BFF35F8F0022E5
:101EF0000B4B1A608CF3108870BDAB680D4C5C50B6
:101F0000EFE700246100091989005B18FF2199712E
:101F100009499980E5E70124F4E70224F2E7C04685
:101F2000240100D0B00F0020AAAA000000ED00E0BC
:101F3000811E0020CD01001001BDFFFF054B064AA8
:101F40001360064A136053609360D360136153615A
:101F5000936170478080808000E400E004E400E04A
:101F600000B5074B83B0010000930022052305480C
:101F7000FFF7E4FC002801DB1F23181A03B000BDA3
:101F8000808900108C1E0020024B9C466144890011
:101F9000016070474000003410B50400FFF72AFDCF
:101FA00001002000FFF7F0FFFF232371BFF35F8FD5
:101FB00010BDC04610B50400FFF71CFD0100200055
:101FC000FFF7E2FFFF23A380BFF35F8F10BDC04682
:101FD00010B504000120FFF719FD044B9C46604436
:101FE00080002060BFF35F8F10BDC046400000340A
:101FF000034B9C46614489000160BFF35F8F7047CB
:102000004000003483680B4810B584466144624444
:10201000090112019A18591854684B6801209C4212
:1020200001D802D00020C0B210BD12680B689A42DD
:10203000F9D8F7E7FFFFFF0F10B508000B690C0098
:102040009847002802D02068616810BDE060002138
:102050000020FAE70A4B1968EFF3108072B60A689D
:10206000002AFCD0BFF35F8F1B68BFF35F8F002295
:102070001A6080F3108840BF002000217047C046DE
:10208000481E0020F8B557464E464546DE46E0B5A8
:1020900099460CAB1C780DAB1B78060090469A460F
:1020A0000768002C11D1BC7B002C42D065003B6836
:1020B0002D19033D59194B78BB73002B00D1FB73CD
:1020C00000238B704B700B7004E065003B682D198A
:1020D000033D5919B2682A4B94464246E3181B0146
:1020E00063441A604A465A600A9A9A600B9ADA6008
:1020F00000238B704B700B707B7B9B46002B2BD08F
:1021000022005946B8687B6898473A68002816D07C
:102110005B4658465B005B445519033BA870D118D9
:10212000D35C002B00D06B705B460C707B73A345B7
:1021300013D0F0BCBB46B246A946A046F8BD5B46EC
:102140005B005B44033BD3189C705119525D002A1D
:1021500000D05A705B460B707C7342464B46307D14
:1021600000F0B4FC051E06D05346002B03D121001D
:10217000306800F0CFFE0E9B002BDAD01D70D8E740
:10218000FFFFFF0FF0B5DE4657464E46454600239B
:10219000E0B58BB00893674B8200D45800239B4670
:1021A000099000F033FC626806000F00EFF3108521
:1021B00072B61368002BFCD0BFF35F8F23689C4678
:1021C0005B7B9946002B00D169E0A2685A4B904690
:1021D0004B441B01984443461A685B681000190081
:1021E000801BB941002900DC63E0099800F06EFC17
:1021F00000230022984600230692079300239A4664
:102200006368BFF35F8F5A461A6085F310885346A0
:10221000002B08D10028C4D10BB0F0BCBB46B2469D
:10222000A946A046F0BD089B414618024B461843FC
:10223000D047626806000F00EFF3108572B613688E
:10224000002BFCD0BFF35F8F002F50DB33003B43EC
:1022500002D02369002B61D12368D97B002907D0E4
:102260004A00521819688C4649466244033A517034
:102270009A7B002A01D14A469A734A46DA734B4642
:10228000E168013BCA5C0132CA545B462361636862
:10229000BFF35F8F5A461A6085F3108881E70023E9
:1022A00000229846002306920793002300209A46B6
:1022B000A6E7002902D1002800D096E70021604659
:1022C00000F0A6FD43461A685B68069207934346F2
:1022D0009B689A464346DB689846E3684B44013B5B
:1022E0001B7808931B0203432361002088E72369BE
:1022F000002BB1D0069A079B921BBB41002B15DB2C
:1023000059460491012103914946029141460191A8
:10231000514620000091FFF7B5FEB6E700F076FBCE
:1023200032003B0012184B41002BE9DA0122034B2B
:102330005242E5E7281E0020FFFFFF0FFFFFFF7F4F
:1023400010B5144C6368002B04D00A211248FFF723
:102350001BFE10BD2300114A1021206800F072FC02
:10236000032000F047FB032000F01AFC03200C4977
:1023700000F066FBFFF73EFB0A4B9C4603232375E8
:10238000D0231B061B6860446375074B80006060A8
:10239000DC60DAE7F80F0020481E0020052000105E
:1023A0008521001040000034281E0020004870479E
:1023B000F80F0020F0B54E464546DE465746E0B5DC
:1023C00085B0019310AB1B78060003930023994658
:1023D000984600927268EFF3108B72B61368002B68
:1023E000FCD0BFF35F8F3568AC7B002C3DD067001D
:1023F0002B683F19033FDB195A78AA73002A00D1D2
:10240000EA73B168474A8C4600980199A2181201F4
:102410006244106051600E9991600F99D1604246FC
:102420009A705A701A706B7B9A46002B67D0220004
:102430001900A8686B6898472A68002852D053464C
:1024400050465B005344D719033BB870D118D35C96
:10245000002B00D07B7053460C706B7354454FD0EB
:10246000F3681B19013B187800E000207368BFF384
:102470005F8F42461A608BF31088002C4FD04B467A
:10248000002B08D10002204305B0F0BCBB46B24689
:10249000A946A046F0BD039B002B3ED00E9B00201A
:1024A0000F999847030004000D000B4335D0002915
:1024B0000ADA009A019B121BAB4100920193002B98
:1024C0000ADB039B994685E700F0A0FA24184D41EA
:1024D00000940195002DF4DA0123134C5B42009324
:1024E0000194EEE753465B005344033BD3189C70C2
:1024F000D119D25D002A00D05A7053460B706C730C
:10250000307D009A019B00F0E1FA81460028A7D0B7
:102510002100306800F0FEFCA2E70020B4E70120B3
:102520004042B1E7FFFFFF0FFFFFFF7F407D704795
:10253000F0B54E464546DE465746E0B585B01099A3
:10254000804689461100194300D1D8E0D81706000B
:102550005640340006005E4001003500241A8D41CB
:10256000494640460A6088600F9A0E984B600861A1
:102570004A6100F04BFA001969410090019100296D
:1025800000DACAE0002300259A4643465A68EFF372
:10259000108B72B61368002BFCD0BFF35F8F4346DD
:1025A0001E68B47B002C00D189E063001B19033B3B
:1025B0001A00944603933368029463445A78B273C2
:1025C000002A00D1F27341468968584A8C46009827
:1025D0000199A2181201624410605160544991603F
:1025E0004946D16052469A705A701A70777B002F14
:1025F00000D174E022003900B068736898473268EF
:10260000002861D003997B00DB195118033B8F70C0
:10261000D018D35C002B00D079E0047077732E00C3
:10262000BC425DD04346DB681B19013B1B78424628
:102630005268BFF35F8F514611608BF31088002CF6
:1026400067D0002E0DD1029A1B02134301364A4671
:102650003000D36005B0F0BCBB46B246A946A046E8
:10266000F0BD4846036998470500031E01D10023C9
:10267000EDE74A461668576832003A4353D0002FB8
:102680000EDA009B019C9B1BBC4100930194002C23
:1026900000DB7AE70123274C5B420093019474E747
:1026A00000F0B4F936184F4100960197002F00DB77
:1026B0006BE701231F4C5B420093019465E7002206
:1026C0002E0000230292B2E77B00DB19033B039844
:1026D000D3189C701118125C002A15D10F707473F6
:1026E0004346187D009A019B00F0F0F9061E00D1C8
:1026F00098E743462100186800F00CFC92E701249B
:102700000025012200232BE75A700F70E7E74B707A
:1027100083E7012300265B4299E70123054C5B42D6
:10272000009301942EE71E00002390E7FFFFFF0FA8
:1027300039200010FFFFFF7FF0B504000D000626D2
:102740007642F717C64636196F4100B584B08F42FE
:1027500014D811D000F05AF932003B00121A8B4104
:10276000002B15DC002B3ED02000290000F058F98A
:1027700004B080BCB846F0BD8642EBD900260027E5
:1027800000F044F932003B00121A8B41002BE9DDC6
:10279000002302930193154B3200009314483B0031
:1027A000FFF708FE0028DFDB00239846BC46114AED
:1027B000114F7B6A9C4504D8B96A8E42D4D99C4596
:1027C000D2D11168EFF3108072B60B68002BFCD0E9
:1027D000BFF35F8F1368BFF35F8F4146196080F3CB
:1027E000108820BFE5E7002ABED0D1E755200010B1
:1027F000F80F0020481E00200040054070B506007C
:1028000000F004F9FA2204000D000023300000213A
:10281000920002F0F9FF00196941002902DBFFF77D
:102820008BFF70BD012001494042F8E7FFFFFF7FA9
:10283000F0B5EFF30583CE46474680B505000C00A2
:1028400085B0002B12D02C4A0020536A9C4203D83A
:10285000926A0130AA4204D305B0C0BCB946B04662
:10286000F0BDE01A421E9041C0B2F5E7234E02933C
:102870000193234B0200009330000B00FFF79AFDF9
:10288000031EE0DD20BF7168EFF3108772B60A689F
:10289000002AFCD0BFF35F8FDAB294463068427BE7
:1028A00062451DD0FF221A405100894601689144BB
:1028B00088464946414403398978002913D0F16894
:1028C0001B0A88464244013A1278DBB29A420FD082
:1028D0007368BFF35F8F00221A6087F31088B2E736
:1028E000FF221A40EBE732699342F1D13161EFE701
:1028F000614600F00FFBEBE700400540F80F0020B9
:1029000055200010084A4368516A10B50468002039
:102910008B4203D8926A0130A24200D310BD5B1AE9
:102920005A1E9341D8B2F9E7004005400260436067
:102930000048704705290010F0B5EFF30582D64630
:102940004F4646461000C0B51038EFF3108872B6F7
:10295000214C2368002BFCD0BFF35F8F01231900AB
:1029600081401E4D1F006963AA461D4D29601D4D03
:102970002E78AC463500C5402F402B4209D1BFF31D
:102980005F8F276088F31088E0BCBA46B146A8463E
:10299000F0BD5346144D5F6A83005D59AF420ED3BC
:1029A000124A8E439B5862461670BFF35F8F002217
:1029B000226088F31088002BE6D09847E4E70C4BA0
:1029C00092009C46624413681360BFF35F8F00233C
:1029D000236088F31088D7E7280100D00040054025
:1029E0003C7005408B1E0020541E0020281800203B
:1029F000D03F054010B50100024A0348FEF77CFFB6
:102A000010BDC0469C8900107A1E0020034B596AF5
:102A10000A00986A596A8A42FAD170470040054014
:102A2000064A536A9942FCD807D1044B02E05A6A1D
:102A3000914202D19A6A8242F9D370470040054020
:102A400070B504000D00EFF3108672B61A4A1368D1
:102A5000002BFCD0BFF35F8F002D1BD02000FFF7B1
:102A600015F8164981420AD02000FFF717F8012116
:102A70002000FEF7DBFF0123A340114A1360114B36
:102A8000A400E550BFF35F8F00220B4B1A6086F362
:102A9000108870BD0B4BA200D5500122A2400A49FC
:102AA00020000B7893430B700449FFF715F90021C0
:102AB0002000FEF7BBFFE5E7280100D03929001010
:102AC00038600540281800208B1E0020F0B54F46C6
:102AD000D6464646C0B507002C4C616A0D00A66A72
:102AE000616AA942FAD18B4208D805D00120E0BC26
:102AF000BA46B146A846F0BDB242F7D9EFF3108A04
:102B000072B6234801680029FCD0BFF35F8F01250E
:102B1000BD4020491D4C8846097889462943C9B2E1
:102B20008C46414660460870391D1B488900656324
:102B30000A51B9000B50216A0020294219D0616A5C
:102B40000800A66A616A8142FAD18B4219D801D184
:102B5000B24216D8CC4516D00C4B1F201D625D63C7
:102B600001230740BB400D4A1E38136043464A46C6
:102B70001A70BFF35F8F0022054B1A608AF310882A
:102B8000B5E70020F5E70120F3E7C0460040054027
:102B9000280100D08B1E0020541E002080E200E09F
:102BA000EFF3108C72B60A490B68002BFCD0BFF310
:102BB0005F8F01238340074A0748136202789A43D4
:102BC0000270BFF35F8F00230B608CF31088704797
:102BD000280100D0004005408B1E002070B5050084
:102BE00014001600002915D00C00002A12D08068AD
:102BF0006B689847296800280ED073009B19620003
:102C0000033B1219CB18033A9C7088188A5C002A7F
:102C100015D10670200070BD63001B197200033BC4
:102C20009219CB18033A9E7088188A5C002A02D148
:102C300004703400EEE75A7004703400EAE75A700A
:102C40000670E7E730B583600023CCB243730133ED
:102C5000047342608373C4730D000068012C06D9AD
:102C6000421C0133DBB2137003329C42F9D1FF21C5
:102C700029404B005918002340180338437030BDD9
:102C8000F8B5CE46474606000C0080B5002907D0AF
:102C90004D0003686D18033D5A195778002F04D171
:102CA0002000C0BCB946B046F8BD7900C919033947
:102CB0008846434459788946002159705170736899
:102CC0003A002100806898473368002814D04246B3
:102CD0009A18947059195B5D002B00D053700F70D7
:102CE000270049463000FFF7CBFF390002003000D3
:102CF000FFF774FF0400D3E7424641465D19AF7009
:102D00009A185B5C002B00D06B701470E9E7C0462A
:102D1000F0B557464546DE464E46E0B50D006B0021
:102D200001685B19DF1E0400C85D83B00192CA19F7
:102D3000002850D043001B18033BCB185E78B446E4
:102D4000002E1AD1019E002E42D0E67B002E04D028
:102D500073009B19CB18033B5D70A37B002B00D144
:102D6000A573E57300282FD10023537003B0F0BC86
:102D7000BB46B246A946A046F0BD72006244033A83
:102D800089184A78904600224A7091465A7001008C
:102D900032002000FFF722FF43468246002B07D077
:102DA0005B0021684344033BCB185A78002A16D1B4
:102DB000424651462000FFF711FF2168019BCA19C6
:102DC000002BC2D10028CFD043001B18033BCB18E7
:102DD00000219970C8E7019B002BB6D1C4E75000D1
:102DE0008018033809184878834648464870587058
:102DF00041462000FFF7F2FE594680462000FFF7CB
:102E00003FFF414602002000FFF7E8FE8046CFE783
:102E1000F0B557464546DE464E46E0B583B00191D3
:102E2000457B04006B0000685B19DF1EC15DC219A1
:102E3000002952D04B005B18033BC3185E78B446A0
:102E4000002E1CD1019E002E44D0E67B002E04D023
:102E500073009B19C318033B5D70A37B002B00D14B
:102E6000A573E573002931D10023280053706173E5
:102E700003B0F0BCBB46B246A946A046F0BD720006
:102E80006244033A8018427890460022427091468C
:102E90005A7020003200FFF7A1FE43468246002B05
:102EA00007D05B0021684344033BCB185A78002AC3
:102EB00017D1424651462000FFF790FE019B0100CA
:102EC0002068C219002BC0D10029CDD04B005B185F
:102ED000033BC31800209870C6E7019B002BB4D1B8
:102EE000C2E75000801803380918487883464846DE
:102EF0004870587041462000FFF770FE59468046E2
:102F00002000FFF7BDFE414602002000FFF766FEED
:102F10008046CEE770B5040000292CD0437B8B425D
:102F20002ED0056848004018033828188278002AF7
:102F300021D053009B18033BEA5CEE188A4202D171
:102F40001BE0002A08D053009B18033BEB185A786B
:102F50008A42F6D142785A7000230122837043706E
:102F60002000FFF7D5FE617B02002000FFF736FE50
:102F70006073012000E0002070BD43783370EBE700
:102F800001221900FFF7C4FE60730120F4E7C04678
:102F900030B50C2083B000F0B9F9FEF7A5FC00288D
:102FA0000ED0994B994A1A605A609A60DA601A6199
:102FB0005A619A61DA611A62954A5A6203B030BD69
:102FC000944CA06700F0F6F90122934B1A60636CF1
:102FD000012BFCD10322914B1A608E4A936B012B7B
:102FE000FCD1013301218E4A8E480093043300F056
:102FF0003DF905238C4A009301218C4800F036F9F5
:103000008B4B5A68FF2A02D8802252005A608022D5
:103010007D4C824B21691201854D1A60002907D031
:10302000606901F0D3FD431C5800C0180338FDD27D
:10303000E0217F4B02201A681140802252012A436E
:1030400011601968484003210140116004219A6809
:103050001142FCD08022802192012A430901116093
:10306000802252005A60734B2361734B5968FF29C9
:1030700000D85A600321684A6F4B116002399A6880
:103080001142FCD0E0201A681040802252011A43FD
:103090001060186848400321014002201160664911
:1030A0008A681042FCD080229201134380221201D0
:1030B0001A608022614B52004A606361604B59681C
:1030C000FF2900D85A6080225E4BE16912015C4DF5
:1030D0001A60002907D0606901F078FD431C580090
:1030E000C0180338FDD2E02255490B681A408023EE
:1030F0005B012B431A60802380229B012B4312012A
:103100001A608022414B52004A60E3614E4B59687D
:10311000FF2900D85A6080224C4B216A12014A4D87
:103120001A60002907D0606901F050FD431C580067
:10313000C0180338FDD2E02243490B681A408023AF
:103140005B012B431A60802380229B012B431201D9
:103150001A60802380225B004B602C4BD2022362DA
:103160003B4B5968914200D25A608022394B616AC8
:103170001201374D1A60002907D0606901F026FD61
:10318000431C5800C0180338FDD2E02230490B68B8
:103190001A4080235B012B431A60802380229B010D
:1031A0002B4312011A608023DB024B60184B6362D1
:1031B000294B5A68FF2A02D8802252005A60802286
:1031C000264BA1691201244D1A60002907D06069BD
:1031D00001F0FCFC431C5800C0180338FDD2E0226B
:1031E0001D490B681A4080235B012B431A60802322
:1031F00080229B012B4312011A6080235B004B60ED
:103200000E4BA361DAE6C0464C190020006CDC02CC
:103210001BB70000008000403CB0004030B00040D0
:10322000002F685900800240008C864700C0024091
:1032300030800040001BB7003C80004040597307BD
:103240005480004054B000406080004060B00040B6
:103250006C8000406CB000404880004048B00040A6
:10326000014B8000C05870474C190020F8B504008D
:1032700021481D0017000E0001F0A8FC01003800D5
:1032800001F0A4FC069B29041B0319432368002BAF
:1032900020DB1A4B1A4DE21853425A4180235B013E
:1032A0009C461203174B62441A60174B1A601700B2
:1032B000AB689F43FBD1C022231D92011A432123F7
:1032C0002660A06013602368002BFCDA0823E1600D
:1032D0001360F8BD3F2322681340B342D9D1A368DD
:1032E0001B051B0D8342D4D1EE22E368D2021340AA
:1032F0008B42CED1EDE7C046001BB7000040FDBFBA
:1033000000C0004000E0004000F000408023024A7E
:103310009B000343D36270470080054010B5140042
:1033200080221B4BD2051A6000281AD00123194AAB
:103330001843194BDA61194A42401A62596298627D
:103340008022134BD2051A601549164A1160E022FB
:10335000D2041A60002C07D18022134B12061A6087
:1033600010BD0D4BD861EBE763011B1B9A00802356
:10337000121912015B049A4200D30C4A0C4B1A60DA
:10338000054B5A608022084BD2051A60E8E7C04618
:1033900000B00540D3C007B0008005402D3FF84F76
:1033A000FCFF01000820014000A00540FFFFFF00D6
:1033B0000C1E0020AA23064A1B0113602F23054977
:1033C000D360054B19605368002BFCDA7047C04688
:1033D0000040024000B0FA00006002402C4B2D4A31
:1033E00070B51A602C4A2D4B2D491A6014008B6859
:1033F0009C43FBD12B4D2C4EB54208D2013E761B8F
:10340000B60808CD984723000134B342F9D1FFF73D
:10341000BFFD264A214B1A60214A9368DB43DB013A
:10342000DD09002BF9D14022214B224C224E9A6714
:103430005A671A67DA66B44208D223682000002B64
:1034400020D00834FEF7B6FDB442F6D31B4E1C4C18
:10345000C022A168300002F047FAA660FEF7BCFA6D
:10346000FEF76CFDFEF76CFF164C174EB44208D207
:10347000013E361BB60808CC98472B0001359E420A
:10348000F9D170BD0834FEF787FDB442D5D3DDE72E
:1034900000E00040BFCDFBFEFE7F3C0000F000409E
:1034A00000C0004090100020A0100020FFFFFF018E
:1034B00000F0014088100020901000200000002043
:1034C00000ED00E0A0100020A810002000BEFDE7E5
:1034D00010B5FFF7FBFFC0460FB400B5084883B036
:1034E00002F066FB049B002B07D005A91800019190
:1034F00001F0F2FA034802F05BFB0120FFF7E6FF60
:10350000C0890010D089001010B50148FFF7E4FF12
:10351000D48900109A4200D2885470477047C04640
:10352000F8B557464E464546DE46E0B599460A9BF5
:1035300007009A460D9B8846934615000B9E9B07F5
:1035400010D10C9B9E420DD29D1B14000E005D44B9
:1035500022004B46013431002020B847A542F7D164
:10356000B0460B9E002E27D0444675195346AA1B21
:10357000013E985D21004B46B847002EF6D123004E
:103580002C0098460D9B9B070FD55B46E51A0C9BBC
:10359000AB420AD94646984622004B4631002020CD
:1035A0000135B8470134A845F6D82000F0BCBB4629
:1035B000B246A946A046F8BD2C00E3E7F0B54F4659
:1035C0004646D646C0B584B098460EAB1B78129FCF
:1035D000994694460D9C109B119EBA0725D4002E47
:1035E0004BD19C4200D3BFE001223A4092461F2CAF
:1035F00000D9B8E00C9A551E302201E0202C03D0EF
:1036000001342A55A342F9D85246002A0DD0A642C9
:103610000BD9202C44D00C9A551E302201E0202CCE
:103620003ED001342A55B442F9D1FA064DD57A0577
:103630003FD4002C39D10F9B102B00D179E00F9B88
:10364000022B00D18AE030230C9A012413704B46E0
:10365000002B3FD02D230C9A135501340C9B62464E
:1036600000930397434602960194FFF759FF04B075
:10367000E0BCBA46B146A846F0BD012215003D4067
:10368000AA463A422FD04A46002A02D10C323A4288
:1036900000D0013E9C42BAD21F2CABD9202E27D994
:1036A0002024FA06DAD57A0503D4A3422DD0A64207
:1036B0002BD00F9B102B32D0022B20D0202CCDD022
:1036C00030220C9B1B191A700134202CC6D04B469B
:1036D000002BBFD17B070DD43B07BFD520230C9A0D
:1036E00013550134BAE79C429FD21F2C00D881E7C2
:1036F00020249AE72B230C9A13550134AEE7202C93
:10370000ACD00C9B1B1901343AE0631E012C92D003
:103710000F9A102A2AD0022A2FD01C00D0E7BB060D
:103720000ED4202C9AD00C9B1A19013478231370D4
:10373000C4E7BB060DD478230C9A01241370BFE7AD
:10374000202C00D18AE758220C9B1B191A700134D7
:10375000B4E758230C9A01241370B1E70C9A603334
:1037600001241370ACE7202400265EE7023CBA0671
:10377000E9D40C9A12191C00D8E70C9A92465344CB
:1037800062221A709AE7C04610B5002800D110BD19
:1037900002F0C2F9FBE7C0460B0010B5002802D0CA
:1037A00049681B68984710BDF0B5DE4657464E463F
:1037B0004546E0B59BB09B46249B89469846259B91
:1037C0000B900C924046424619009A4601F0C7FC05
:1037D000002800D0D8E0012240465146774B5242A3
:1037E00001F0B8FC002800D0CEE00122404651464E
:1037F000734B524201F098FC002800D0C4E0002234
:1038000000234046514601F08FFC002800D0B9E16A
:10381000424653460A9209938023289ADB001A40B5
:103820000E92289A1A4201D1062326930A9A099BDE
:103830001600134300D0C7E0289B002500261B0577
:1038400000D49BE100230D93269A0D9B9A4200DC45
:103850009FE1D01A431E26938023289ADB001A4347
:103860000023002728920D93279B0024BB4200D9F8
:10387000DC1B0223289A1A400E92289A134203D086
:103880007B427B415B421C400D9B002B07D00A987A
:1038900009992A00330001F0E6FB0A900991002201
:1038A00000234046514601F03FFC002805D080200F
:1038B00000068446099961440991289A414B0B9D61
:1038C00013400493269B0A9A0293099B0394009247
:1038D000019349465B4628000C9A00F08BF90400DE
:1038E000002F62D0289B220098061F23C017984300
:1038F000631C984649465B466530A8470D9B0025EA
:10390000DA179C18DB0F9A465440013F01E0202D46
:1039100013D00AAA94461F23200063440A210135CC
:103920005E1901F053F93031317020000A2101F0A5
:103930004DF926000400092EE9D80523069300233B
:1039400004930A330393534605970B9F029312ABDC
:10395000009342465B46494638000195FFF72EFE2C
:103960000E9B0400002B20D00C9BC51A279BAB425A
:103970001BD91E0022005B46494620200135B8476E
:103980000134AE42F6D810E0289B42460493279BB0
:1039900049460393269B0B9802935346009201934A
:1039A0005B460C9A00F026F9040020001BB0F0BC26
:1039B000BB46B246A946A046F0BDC046FFFFEF7F1A
:1039C000FFFFEFFFFFF7FFFF734B099F9C46780057
:1039D000400D604401F0D6FB704A714B01F061FB71
:1039E000704A714B01F036FB3B03704A1B0B1A43C4
:1039F00004000D00300011006D4B002201F021FB8E
:103A00006C4A6D4B01F04DFB02000B0020002900B9
:103A100001F020FB01F0CEFB0D9001F0B3FB674AF3
:103A2000674B04000D0001F03CFB0022654B01F0E8
:103A300011FB01F0BFFB644A0600644B2000290023
:103A400001F02FFB040030000D000F9601F09AFBEF
:103A50005F4A604B01F025FB02000B0020002900AB
:103A600001F0EFFA02000B0006000F0001F019FB55
:103A7000320004000D003B003000390001F0EAFA8A
:103A8000002210901191544B2000290001F0EBFA14
:103A90000022524B01F0DEFA02000B002000290048
:103AA00001F0E1FA00224E4B01F0D4FA02000B00C3
:103AB0002000290001F0D7FA0D0080210400320017
:103AC0003B000020C90501F0BCFA02000B002000F9
:103AD000290001F0BFFA02000B001098119901F0C3
:103AE000C2FA0022314B01F0B5FA3E4B0F9C9C46C6
:103AF00064440022230501F0D4FA05000E00020000
:103B00000B000A98099901F00FFB00280AD00D9BC1
:103B10002800013B31000D930022304B01F0A3FA45
:103B200005000E00C6270D992B0063318F42BF415F
:103B300028997F420437090500D495E6334300D124
:103B400082E6099C284A2100284B0A9801F0FAFADB
:103B5000002808D000222100254B0A9801F0E4FA41
:103B6000002800D070E6269B002B00D17CE60E9B3F
:103B70005A1E9341269AD31A269375E600230427EA
:103B80000D9371E643460A9380231B065344099321
:103B900042E6002326935FE601FCFFFFFB799F507E
:103BA0001344D33FB3C8608B288AC63F0000F03F60
:103BB0000000F83F61436F63A787D23F71A3790983
:103BC0004F930A400000E03F1655B5BBB16B024071
:103BD000EF39FAFE422EE63F00002C400000244060
:103BE00000001840FF0300002D431CEBE2361A3F93
:103BF00080842E41F0B54E46DE4657464546E0B538
:103C000097B09946209E219F229B83469846079114
:103C10000C923B0032003000390001F0A0FA00287D
:103C200000D0A9E1012230003900CA4B524201F014
:103C30007BFA002800D0E1E0012230003900C64BB9
:103C4000524201F087FA002800D0B7E0002230008D
:103C50003900C24B01F07EFA002800D099E0002222
:103C600030003900BE4B01F05FFA002800D090E030
:103C7000002200233000390001F056FA002800D05D
:103C8000B1E000230D93249B5B0501D406239846E5
:103C900008AB9C461722002430234146624404E0CE
:103CA000013413550139202C01D00929F8D8884650
:103CB0003000390001F07EFA4346DA00A94B0500D6
:103CC0009B181A685B680892099301F05BFA02007E
:103CD0000B003000390001F0B4F9089A099B01F09B
:103CE000E0F90A900B9101F089FA824601F046FA58
:103CF00002000B000A980B9901F0A3F900229A4BDD
:103D00000A900B9101F026FA002800D1C0E00123AF
:103D10009C46E244504601F031FA02000B0008983C
:103D2000099901F007FA002802D000239A460135CC
:103D30004346002B6AD008AB17269C46089566447C
:103D4000554614E001235B4243440A2128009A4669
:103D500000F03CFF013430313719397028000A2156
:103D600000F034FF092D00D8D0E0D0460500202C0B
:103D7000E8D10EAB98460323249A1340012B00D1BF
:103D800096E02023249A01930392239A43460292B9
:103D90001EE0249B58460493239B009601970393AF
:103DA00043460C9A029307994B46FFF7FDFC17B068
:103DB000F0BCBB46B246A946A046F0BD249B5B07BB
:103DC0000ED40322694B2499019203912399029105
:103DD000009358464B460C9A0799FFF7A1FBE6E77C
:103DE0000422634BEFE73B0032000020002101F08A
:103DF00028F9012306000F000D9344E7249B039349
:103E0000239B0293042301935A4BE1E7280001F01E
:103E1000B9F902000B003000390001F012F9524BE1
:103E2000002206000F0001F07FF90EAB9846002833
:103E30000AD10022300039004B4B01F08BF90028E9
:103E400002D1EB0700D50135202C94D008AA944666
:103E50001723280063440A2101341E1900F08EFE46
:103E60003031280031700A2100F088FE051EEBD1A8
:103E70000323249A1340012B1BD0202C00D180E770
:103E80000D9B002B35D02D224146631C0A5579E746
:103E900000220A980B99344B01F046F9002800D013
:103EA00046E75346002B51D101239C46E2443FE7AD
:103EB0002024239B002BE0D00D9B002B03D1249AC0
:103EC0000C33134202D0239B013B2393239BA34239
:103ED000D3D908AB9C46172230236244202C00D152
:103EE0004FE72399013413558C42C6D0202CF8D1CA
:103EF00047E7249B5B0724D4249A2300120700D4AD
:103F000040E72022414601330A553BE75746089DCA
:103F1000202C00D12DE7220030214046002F09D06F
:103F20000132B154202A00D123E7D3431B191B18B7
:103F3000002BF5D10EAB98462E234146541C8B54D2
:103F400082E72B224146631C0A551BE7DB0700D49E
:103F5000EEE6A9E7FFFFEFFFFFFFEF7F65CDCD4165
:103F600065CDCDC1D88B00100000E03FE089001086
:103F7000E4890010F0890010249B0393239B029393
:103F800003230193004B23E7EC890010F0B5DE46D4
:103F90004E4657464546E0B59FB01C00289B9146CB
:103FA0000993C94AC94B8B4608901A60002900D171
:103FB00018E2002320789A46002800D11AE2260051
:103FC0001D005C460AE02A006F1C4B46089D21003C
:103FD000A8473D0001363078002870D02528F2D15E
:103FE00010239B46083B9A46043B9846023B00211F
:103FF0009C46721C107816000300203BDBB2102B8D
:1040000003D8B34F9B00FB589F460300303B092B5E
:1040100032D900230A932A2868D0002398462E28F4
:104020003ED00300683BDBB2122B1CD8A94A9B0090
:10403000D3589F46012301321943DBE7634601321F
:104040001943D7E7434601321943D3E75B460132B0
:104050001943CFE7534601321943CBE780235B0076
:104060007078194301360300253BDBB2532BAAD8E5
:10407000994A9B00D3589F4600270300B800C019F7
:1040800001364000C018337830381A00303A070043
:10409000092AF3D90A901800002398462E28C0D187
:1040A00080237078DB0019430300303B721C092B1E
:1040B00000D8A1E12A2800D1B2E11600B1E7A34659
:1040C000AA462C00D14503D801235B424B449A46B3
:1040D0004B46524659460020089DA84720001FB075
:1040E000F0BCBB46B246A946A046F0BD099B40CBFA
:1040F0000A96002E03DB50780993561C8DE728386A
:10410000014370420A9009935078561C85E778283D
:1041100000D1DFE1582800D14CE26F2800D14FE3F5
:10412000622801D100F030FC10230A009A430B9260
:10413000692801D000F0A9FC0A230C934B0500D597
:10414000D0E10B9A802311009B0019408B461A4244
:1041500000D0A1E2802311005B0019408A461A4278
:1041600000D0B6E313005B0600D5EDE21300099919
:104170001B0601D400F076FC08C91BB2D8171A1828
:10418000424092B209919346DA0F1292002B09D164
:10419000802310220B99DB000B4091430B91002BE5
:1041A00000D0E4E20B9A6123920600D541230EA9C8
:1041B0001F228C46DBB262440A3B5F461395A3463E
:1041C00055460C9CB2460D9316000AE03033DBB224
:1041D00001357355A74200D2EDE2202D00D1EAE26D
:1041E00007002100380000F0F1FCCBB20929EDD91D
:1041F0000D9A94466344DBB2EAE780239B00707813
:10420000194301362FE77078682800D1CDE180236B
:104210000136194327E770786C2800D1BFE180236D
:104220005B00194301361EE7462800D19BE10722B7
:10423000099B0491073393430A9A1900039242465B
:1042400002920CC908980092019309912A004B46EA
:104250002100FFF7CFFC01360500BCE62A006F1CE9
:104260004B46089D21002520A84701363D00B2E6B7
:104270008B0700D4ADE1099B2A009A466B1C984637
:10428000534601CB21009A46089F4B46C0B2B8471F
:104290000A9B9C466544012B00D886E2089B474652
:1042A000B04626004C4699463A00230001373100BB
:1042B0002020C847AF42F7D1A146534634004646B6
:1042C0000993013687E6C0468D3F0010001E00208E
:1042D000F88900103C8A0010888A0010099B04CBE2
:1042E0009B4643460992002B00D1C6E013789C46BA
:1042F000002B00D1BDE34346013B099A0133D0189E
:104300000A9F130001E0834203D05A780133002A48
:10431000F9D1099A0A979B1A0B9380230A00DB00B4
:104320001A400C92194204D00B9B434501D94346D5
:104330000B9302231A000A400D920B4200D187E131
:104340006046002800D168E10C9B002B00D10DE1F4
:10435000A844C246099B57465B1B9846089BB24639
:104360002A0026004C46994609E023003100551CDE
:10437000C8474346585D002800D126E12A009742ED
:10438000F3D1A1463D00340056460D9B002B00D0D2
:1043900043E15B46013609931DE6099B1A0008CAF2
:1043A0009246002B48D0212211438B460EA884460A
:1043B0001F216144099500220F27A4460D0002E049
:1043C000202A0CD00B003C001C4020003730092C68
:1043D00000D807380132A85419090F2BF0D86446C9
:1043E000099D32E0DC4B2078089300239A46002890
:1043F00000D0E4E5002465E6434606000A9F9800E5
:10440000C01801324000801916780300300030389F
:10441000303B0928F3D93000984616000A9700E689
:10442000099B023604CB9046D2434046D217104037
:10443000804609933078F4E5102208009043113249
:104440001043834600224905B0D55B4606930823F6
:10445000059343460493102303930023029316AB62
:10446000019200932A004B4621000898FFF7A6F816
:104470005346050001360993ADE513789C46002BA1
:1044800000D1F7E202235B4237E7202302009A4380
:10449000472A04D180231B0119430223984345284E
:1044A00001D1202319430722099B04910733934329
:1044B0000A9A19000392424602920CC90898009287
:1044C000019309912A004B462100FFF76DF901364F
:1044D000050080E510230C930C230A009A430B92ED
:1044E0004B0503D501230B9A9A430B92692800D1FF
:1044F00027E6642800D124E60B9A802311009B0054
:1045000019408B461A4200D066E1802311005B00FF
:1045100019408A461A4200D039E213005B0600D5E2
:104520003CE113001B0600D4A6E2099B04CB120455
:10453000120C934609935B46002B00D09AE10B9A2C
:104540001033110099430B91520500D492E10023DE
:104550009A460B9B06930A9B0593434604930C9B38
:10456000039300230CE12023194360E6099B0A9A78
:104570005B1B98464B4691461F00B2462600089C9E
:104580002A003B003100A04743460135585D002812
:10459000F6D14A463400B94656460A92F5E6C0239B
:1045A0009B00B078194302365DE5C023B07819430B
:1045B000023658E50C230A009A4314331A43103B81
:1045C0000B920C934B058DD496E7A14634005646CA
:1045D000DBE60A9A012A00D853E26B1E9F18089B5B
:1045E000B04626004C4699462A002300013531008A
:1045F0002020C847BD42F7D1A14634004646099B5A
:104600003A0001CB210098467D1C4B46089FC0B262
:10461000B847434601360993DDE40B9B0A9AA84646
:104620009A4200D8B5E694466544ED1A089B474681
:10463000B04626004C4699463A0023000137310027
:104640002020C847AF42F7D1A14634004646A0E635
:104650000B9A0A99531C914200D814E24B199B1AE9
:104660001F00089BB24626004C4699462A002300AC
:10467000013531002020C847BD42F7D10A9BA14631
:1046800001330B93099B34001B7856469C466046C9
:10469000002800D058E67CE60722099B07339343A5
:1046A000013294469C4462465F6809921A68FB177F
:1046B0001093119310981199030053400E930B001F
:1046C0007B400F9394460E9A0F9B121A8B410E92C9
:1046D0000F93FB0F6246129300233A439B463DD053
:1046E0000B9A6123920600D541230022DBB20EA96A
:1046F0000A3B8C4692460D9343461F326244139503
:10470000159655460E9E0F9FA24690460C9C1493FC
:104710000CE03032D2B2434601355A55BB4500D188
:104720008AE1202D00D18AE106000F00220000233B
:104730003000390000F088FAD2B2092AE9D90D9B7D
:104740009C466244D2B2E6E7FF23099904C91340AC
:104750001A00099117E5C0461D3500100B9A103359
:10476000110099430B915205BAD500239A460B9B31
:1047700006930A9B0593434604930C9B0393129B59
:1047800002935346019316AB2A00009321004B4637
:104790000898FEF713FF013605001CE4FF22099B71
:1047A00002CB11408B460993C5E653464546099313
:1047B0000136FFF710FC56465C46AA46139DD6E725
:1047C00008230C930B910B99642800D084E60B9B73
:1047D0005B0500D586E6B4E40722099B07339343C3
:1047E000013294469C44624609921A685B68100044
:1047F0009B4613005A46134307D10B9A10331100FE
:1048000099430B91520500D5A1E60B9A61239206BC
:1048100000D541230022DBB20EA90A3B8C4692460A
:104820000D9343461F3262445F461295A346554698
:104830000400B24690460C9E13930DE03032D2B283
:10484000434601355A550023BB4200D100E1202DDB
:1048500000D100E104000F003200002320003900E5
:1048600000F0F2F9D2B2092AE8D90D9B9C466244C5
:10487000D2B2E5E70B9A6123920600D54123DBB261
:104880000EA90A3B1F228C460D93230062445C460E
:104890001295170055469B46B2460C9E08E03033F1
:1048A000DBB201357B55B4420ED3202D0CD0040071
:1048B0003100200000F08AF9CBB20929EFD90D9A16
:1048C00094466344DBB2ECE756465C46AA46129D2A
:1048D0003FE6099B1A0008CAD91713925A184A4092
:1048E0009246DA0F1292002B08D1802310220B99E6
:1048F000DB000B4091430B91002B2BD10B9A6123D2
:10490000920600D541230EAA1F279446DBB20A3B2C
:104910000D9567445D460993A3465446B2460C9EE6
:1049200008E03033DBB201357B55B4420ED3202D85
:104930000CD004003100200000F048F9CBB2092966
:10494000EFD9099A94466344DBB2ECE756465C46DD
:10495000AB460D9D0B9B2A0006930A9B21000593F5
:10496000434604930C9B08980393129B01360293D1
:104970005B46019316AB00934B46FEF71FFE139B5D
:1049800005000993FFF727FB02230C931AE7099B05
:1049900004CB92461293002A08D1802310220B994F
:1049A000DB000B4091430B91002B2BD10B9A612321
:1049B000920600D541230EAA1F279446DBB20A3B7C
:1049C0000D9567445D460993A3465446B2460C9E36
:1049D00008E03033DBB201357B55B4420ED3202DD5
:1049E0000CD004003100200000F0F0F8CBB209290F
:1049F000EFD9099A94466344DBB2ECE756465C462D
:104A0000AB460D9D0B9B2A0006930A9B2100059344
:104A1000434604930C9B08980393002302935B4640
:104A2000019316AB00934B46FEF7C8FD129B0500A1
:104A300009930136FFF7CFFAB44200D871E6149B10
:104A400054460E960F97AA469846159E139D8EE6DD
:104A5000A64200D8FBE6139B56469846AA465C46FB
:104A6000129D76E508C9D8171A1842400991FFF738
:104A70008AFB00230B9350E4099B04CB93460993D4
:104A800059E52F00BBE50B9301E6063B0C939AE634
:104A90000EB4012210B585B007AC08CC010000941B
:104AA000524204480394FFF771FA05B010BC08BCE9
:104AB00003B018471535001000B585B003910121EA
:104AC00002900093034813004A4202A9FFF75EFADE
:104AD00005B000BD9937001010B5094A03001468ED
:104AE00084B0002C08D0012200910648524203A94C
:104AF000A047012004B010BD01F05AF80020F9E7EA
:104B0000001E00208937001001480421014B18477E
:104B100020100020394B0010142310B50100188814
:104B200004331B88984710BD162310B50100188860
:104B300002331B88984710BDF8B54746CE4680B56E
:104B40000F1E19D0142399460433040000250126B2
:104B500098464B461888434621681B88984701C4ED
:104B6000431E9841013540420640AF42F1D130002A
:104B7000C0BCB946B046F8BD0126F8E7124A936FAB
:104B80009B0815D29066D166002905D0FFE7FFE7A4
:104B9000FFE7516F106F704704B580210906C217F7
:104BA0005140002800D0C84303F0D6FD002104BDC9
:104BB000F0B5146E556E576F166FFFF7E3FF14666E
:104BC000556657671667F0BD000000D0114A936F15
:104BD0009B0813D210665166002905D0FFE7FFE756
:104BE000FFE7516F106F704704B5002801D0002017
:104BF000C04303F0B1FD002104BDC046F0B5146E02
:104C0000556E576F166FFFF7E5FF146655665767C9
:104C10001667F0BD000000D094464A4A926F920891
:104C2000624601D228E0C046F0B5464E346E756E3D
:104C3000776F366F00F020F89446424A1466556646
:104C4000576716676246F0BD94463E4A926F9208D7
:104C5000624601D254E0C046F0B53A4E346E756EED
:104C6000776F366F00F04CF89446364A14665566F6
:104C7000576716676246F0BD002B24DB11D0002970
:104C80003EDA00B5C943404200D1013100F038F8A6
:104C9000C943404200D10131DB43524200D10133CC
:104CA00000BD002AEBD1002801D1002905D0002049
:104CB000C90FC90701D1C043410800B503F03CFD4D
:104CC0000022002300BD00B500290ADBDB4352426D
:104CD00000D1013300F014F8C943404200D1013142
:104CE00000BDC943404200D10131DB43524200D1F3
:104CF000013300F005F8DB43524200D1013300BD1F
:104D0000002923D1002B18D1002A0CD0BC460D4F0E
:104D100038667A6600210023FFE7FFE7FFE77A6F36
:104D2000386F67467047002801D00748010000B57A
:104D300003F002FD0022002300BD02000B00002052
:104D400000217047000000D0FFFFFFFF002B00D0C4
:104D5000BFE0130C28D1002AE7D080B4114F396688
:104D60007A66FFE7FFE730B4040C7B6F396F1B04F2
:104D700023433B667A66FFE7FFE7FFE7C04684B25E
:104D80007B6F3D6F1B0423433B667A66FFE7FFE7BB
:104D9000C04600232C042D0C7A6F386F001969412E
:104DA000B0BC7047000000D0F0B594460025140E4A
:104DB00001D112020835140F01D112010435940FEC
:104DC00001D192000235D40F01D152000135D40B2C
:104DD0000134254F7C66254C3C660E0C93B2FFE7F0
:104DE000FFE7FFE73C6F6643360C7703BE4673432D
:104DF000DF0B5B04C01AB941130C7343DB18C91AEB
:104E0000CE086643360CB64493B273431F0F1B01A2
:104E1000C01AB941130C73431F0B1B05C01AB941CB
:104E2000860D8F023E436643360C092D24DB520A61
:104E30007243801A7703460A6643360C16235B1BBF
:104E4000DE40DF40BF1964466643821B704604356E
:104E500006330100D940A840C01900D30131A24255
:104E600006D20023F0BD0000000000D0FFFFFFFFCE
:104E7000121B0130F3D3F1E709277F1BFE40644684
:104E8000A2B27243801A00D20139220C7243130C71
:104E90001204821A99410B00704604351337010041
:104EA000F940A840801900D30131002B02D1A24261
:104EB0000AD2F0BD013000D30131121BFAD2013BFE
:104EC000F8D1A24200D2F0BD013000D30131121B53
:104ED000F7E7F0B51C0C00D080E00CB400251C0AEC
:104EE00004D11B02160E3343120208351C0B04D1E9
:104EF0001B01160F3343120104359C0B04D19B0098
:104F0000960F334392000235DC0B02D192185B41BD
:104F100001351C00971864410134464F7C66464CAD
:104F20003C660E0CFFE7FFE7FFE7C0463C6F6643B9
:104F3000360C7703BE4697B27743C01B00D20139C7
:104F4000C01B00D201399FB27743C91BC91B170C84
:104F500077437E04FF0B801BB941CE086643360CB5
:104F60000C2D33DBB644120B1F053A431B0B97B2D3
:104F70007743C01B00D201399FB27743C91B170C7E
:104F800077433E043F0C801BB941860D8F023E43A0
:104F9000664329277F1BFE400C3D7746AF40BF1973
:104FA00030BCA2B2ABB272437343801A9941220C57
:104FB0007243130C1204801A994102000B0001374E
:104FC000001BA941F9D2781E0021F0BD0C277F1BE0
:104FD000FE4077467F0BAF40FF19E0E700245D1CE1
:104FE00007D0144F7D663966FFE7FFE7FFE7FFE76D
:104FF0003C6F95B29EB265436643401BB141150CB0
:105000001E0C6543664336042F0C3E432D04401BA3
:10501000B141994204D202000B0020000021F0BDF2
:1050200001D19042F7D3801A994101349942F2D3C9
:10503000F6E70000000000D0FFFFFFFF48404140BE
:10504000484018B41B4B5B68FC46019308BD04DF65
:10505000DB52001018B4174B1B68FC46019308BDC7
:1050600000DFE55200109446134A926F920809D26D
:10507000624618B40F4BDB68FC46019308BD0CDF99
:105080009D5500100C4AF0B5146E556E576F166F93
:105090006246FFF7EEFF084A1466556657671667C3
:1050A000F0BD18B4034B9B68FC46019308BD08DFB4
:1050B00041540010B0110020000000D0FFB5504056
:1050C0004240504059404B40594000E0FFB5154F19
:1050D0004C00640D03D0BC4204D10C0314D8002052
:1050E000090D09055C00640D03D0BC4204D11C030A
:1050F0000AD800221B0D1B0501264B4009D44B404A
:1051000003D58B4200D18242FFBD9942FCD190422F
:10511000FFBD0B43DB1803431343F5D0C9434918C4
:10512000FFBD0000FF07000000B5FFF7CFFF804183
:1051300000BDC04600B5FFF7C9FF01D9002000BD82
:10514000012000BD00B5FFF7B9FF01D9002000BD67
:10515000012000BD00B5FFF7B1FF804100BD012077
:1051600040054A00121804D85A00121801D800202D
:105170007047012070470020704700000021002880
:1051800005D17047C1174840401AFAD0C90713B576
:10519000064B1B6898470CBC441CA2401005120B20
:1051A0000349091B09051943114310BD441E002082
:1051B0001F04000010B54C00620D8023D218DB00E4
:1051C000D21A5B057E2A10DD9E3A13DACC1709034A
:1051D000490819435242D140640001341532202A53
:1051E00005DAD0400843604310BD002010BD0846DA
:1051F000604310BDC80FC018013810BD18B4044B6F
:105200005B6AFC46019308BD24DF4D570010000087
:10521000B0110020132370B51D78012D15D010DDBD
:105220001C48FFF781FC1C4C01008022200000F08C
:105230005BFB022D06D01948FFF76EFC184B186077
:1052400070BD154C174BA364F5E7164B124C236049
:105250006360A360E36023616361A361E361236230
:105260006362A362E36223636363A363E363236410
:105270006364A364E36423656365A365E3652366F0
:105280006366A366E36623676367A367E367A36454
:10529000D1E7C04653440000B01100204C33000059
:1052A000441E0020A952001007B5604601880A0A72
:1052B0000230DF2AFAD1C9B2820804D302884088BA
:1052C0000004104300E00068014A5050039007BDFD
:1052D000B01100200FB403BC0CBCF0B50124E407EE
:1052E000634000E0F0B50C0DCF0F661E3605891B3C
:1052F000640503D3C943404200D30131640D03D098
:10530000661CF60A07D0E41B00207F00791C890781
:105310008912803C24031D0DDF0F6E1E36059B1B7A
:105320006D0503D3DB43524200D301336D0D03D02F
:105330006E1CF60A07D0ED1B00227F007B1C9B072A
:105340009B12803D2D032F1B661B58D4A446202E94
:1053500046DA20371400BC401D00BD40F240334106
:105360002A4380185941CB0F05D0C943C0430022BE
:1053700064425041514162464D0D28D10D0D07D177
:1053800000281FD0241940414941013A0D0DF9D0A0
:10539000640006D3013000D30131002C01D1400854
:1053A0004000013A0BD4941CE40A04D112051144C4
:1053B000DB071944F0BDD907204B194300E0D9079A
:1053C0000020F0BD0029DDD1002CDBD1F0BD013281
:1053D000C6074008CD0728434908002EE1D0D9E789
:1053E0003C2E29DA203E40371400BC4000D0012476
:1053F000F24014431A00BB401C43D317ACE7AC4641
:10540000202F08DA20360400B4400D00B540F840E3
:1054100039412843A5E73C2F0CDA203F40360400F1
:10542000B44000D00124F84004430800B1400C43CC
:10543000C117EAE710001900002494E70000F07F8C
:10544000F0B50C0D661E3605891BE60A6405640D71
:1054500002D0651CED0A04D0002001210905803C22
:105460002403A4461C0D671E3F05DB1BE70A6405E9
:10547000640D02D0651CED0A04D0002201231B0537
:10548000803C24037740644497B484B296B274435A
:10549000070C7E43150C6F4380B26843361802D365
:1054A000012000043F183004350C00197D4184466A
:1054B00088B29AB250430C0C62431F0C7C438EB2EC
:1054C0007E43921902D301263604A4191604170C40
:1054D0003618674101BC81B29AB25143040C624351
:1054E0001B0C5C4380B25843121802D30120000405
:1054F00024181004130C401863412D185E4100203D
:10550000474106BC88B293B258430C0C6343120C5B
:10551000544389B251435B1802D301210904641832
:1055200019041A0C091862416D18564100204741B0
:1055300018BCF902720D1143F0026A0D1043ED021E
:105540000A0D03D16D1940414941013B124E9B1B8D
:105550007600B3420ED26D0007D3013000267141B0
:105560006646354301D1400840001B05C918E407D1
:105570002144F0BD0BDA013306D1013004D10131F1
:105580004F0D01D04908F2E7E1070020F0BD0136D8
:1055900031050020EBE70000FF030000F0B51C0D13
:1055A000671E3F05DB1BE70A6405640D02D0661C1D
:1055B000F60A04D0002201231B05803C2403D025D9
:1055C0002D060026F6432E661E096E66CE0FF619CE
:1055D000B44649004F0D02D07E1CF60A03D00020CD
:1055E0000021403F3F033E1BB600B444013F7F050E
:1055F000C91B49082E6F013676089C02950D25437C
:105600007543ED137543AD1301356D10F603761B2D
:105610000CB4CC02450D2C43A2B2B3B25A43270CB2
:105620007B43350C6F43A4B26C431B1902D3012496
:1056300024043F191C041D0CA4187D4124196D413C
:10564000009A91B2ACB26143170C7C432B0C5F43C0
:1056500092B25A43A41802D301221204BF182204A2
:10566000230C52187B41019C6C431B19520ED9012B
:105670000A434401A01A81B2B2B2514303145A43FF
:10568000360C734387B27743D617D21900277E4171
:1056900036049B191704160C7F185E417316ED181B
:1056A000F301002680337541A90F06D16400690A11
:1056B000E8055B0A184309D22FE0042294448033A2
:1056C0007541A90AA8059B0A184326D340414941C0
:1056D0002404009A019B0D005543641B4343E41AC4
:1056E00095B286B27543170C7E43030C5F4392B2AA
:1056F0005A43B61802D301221204BF183204330CE5
:1057000052197B4152429C41002C02D400220130AC
:1057100051414008CA071043490802B06246D70702
:105720009210084BD218084B9A4203D212058918DE
:10573000C919F0BD0020002A01DC3900F0BD013399
:105740001905F5E7FD030000FE070000002200B583
:10575000203200F004F8080000BD000000220B1504
:105760000AD410B5944600F031F81414013400DA6C
:105770000021CB17144C20470020002170476244C1
:10578000343A0CD40C2A07DA04009140904052427B
:105790002032D440214310BDD843D94310BD20321C
:1057A00007D40C469440524220321141D04020434D
:1057B00010BD0800C917203203D4524220321041D4
:1057C00010BD1800190010BD7F5700100A0DCC0F36
:1057D000531E1B05C91A520503D3C943404200D3C7
:1057E0000131520D03D0531CDB0A07D0121B0020DD
:1057F0006400611C89078912803A1203014BD21A96
:1058000070470000FF03000051434343C9188C4612
:10581000110C83B24B4310B4040C614392B280B2BA
:10582000504362431C041B0C001910BC5941130463
:10583000120CC0185141614470470000132310B589
:1058400012481C78FFF770F90100012C0AD003DD23
:1058500080220F4800F048F80E48FFF75DF90E4B24
:10586000186010BD0A4C5422200000F03DF80B4B8C
:105870006365A365E36523666366A366E3662367E2
:105880006367A367E3672362E361E5E753460000CC
:10589000B01200204C330000441E0020A15800101C
:1058A00007B5604601880A0A0230DF2AFAD1C9B278
:1058B000820804D3028840880004104300E0006896
:1058C000014A5050039007BDB01200200148042146
:1058D000014B184730100020394B0010014B1B685A
:1058E0001847000030100020014B5B68184700008B
:1058F00030100020030010B5080011001B68984705
:1059000010BDC046F0B546464F46D646C0B5437DAD
:1059100080460E001700002B46D0002A3FDD4B1EAC
:105920009946244B0125002400209A460DE04B4661
:105930001B5D0D3B5A425341325DDBB20A2A0BD04C
:105940002B00013401359F421ADD002CEFD1434674
:10595000325D1B7D0A2AF3D1002BF1D1A04204DA7B
:105960004346211A1B6830189847434650461B6827
:1059700002219847013428002B0001359F42E4DCC6
:10598000874204DD4346391A1B6830189847F619D8
:10599000013E33780D3B5A42534142461375E0BCF9
:1059A000BA46B146A846F0BD0368110030009847DA
:1059B000F5E7C0468C8C0010F0B5C6460C000968AF
:1059C000060000B5802906D04B1C236064182671A0
:1059D00080BCB846F0BD0F4B1D68002D16D0231DAE
:1059E00098460D4F02E02D69002D0FD02B68002B3B
:1059F000F9D03B68002B01D0AB42F4D128004146DE
:105A00002268FFF77FFF2D69002DEFD101230021D0
:105A1000DBE7C046F0190020F8190020F0B5DE469B
:105A200057464E464546E0B585B017001C000600B7
:105A30000D00FCF7EBFF0023304A12184B41002BFE
:105A400058DB2F4908008A4602F0B6FE01906B1C15
:105A500003D1300002F0FAFD0500002C25D1294BBE
:105A60009846294B1C68002C15D0002F20D1274FB9
:105A700002E02469002C0ED02368002BF9D03B688B
:105A8000002B01D0A342F4D120002A003100C047EE
:105A90002469002CF0D1019B002B27D105B0F0BC6C
:105AA000BB46B246A946A046F0BD194B9846D8E77A
:105AB000164B994602ABDF1D0A239B4602E0246980
:105AC000002CE8D02368002BF9D04B461B68002B34
:105AD00001D0A342F3D12A0031002000C0475B4629
