:020000041000EA
:1000000000B5324B212058609868022188439860DF
:10001000D860186158612E4B002199600221596106
:100020000121F02299502B49196001219960352056
:1000300000F044F80222904214D00621196600F024
:1000400034F8196E01211966002018661A6600F04E
:100050002CF8196E196E196E052000F02FF8012189
:100060000842F9D1002199601B49196000215960AB
:100070001A491B48016001219960EB211966A021F2
:10008000196600F012F800219960164914480160C1
:100090000121996001BC002800D000471248134993
:1000A000086003C880F30888084703B5996A0420EC
:1000B0000142FBD001200142F8D103BD02B5186610
:1000C0001866FFF7F2FF186E186E02BD00000240BE
:1000D000000000180000070000035F00212200005C
:1000E000F4000018222000A00001001008ED00E03C
:1000F00000000000000000000000000074B24E7A12
:1001000000200420F7010010C3010010C5010010F9
:10011000C1010010C1010010C1010010C101001097
:10012000C1010010C1010010C1010010C701001081
:10013000C1010010C1010010C9010010CB01001065
:10014000CD010010CD010010CD010010CD01001037
:10015000CD010010CD010010CD010010CD01001027
:10016000CD010010CD010010CD010010CD01001017
:10017000CD010010CD010010CD010010CD01001007
:10018000CD010010CD010010CD010010CD010010F7
:10019000CD010010CD010010CD010010CD010010E7
:1001A000CD010010CD010010CD010010CD010010D7
:1001B000CD010010CD010010CD010010CD010010C7
:1001C00000BE00BE00BE00BE00BE00BE00F04BF888
:1001D000103800BEF2EB8871C4310010E831001015
:1001E0003402001090A31AE700202149086006C8D5
:1001F00081F3088810471F48006800282FD10DA4FC
:100200000ECC002902D000F012F8F9E71A491B4A77
:10021000002000E001C19142FCD1194988471949E9
:1002200088471949884700BEFDE701C901C29A42C3
:10023000FBD37047E8310010C00000209803002075
:10024000C03400100000042000000420C03400105E
:1002500000100420001004200000000070470B482C
:1002600002F008FA0047EFF30580C0B270470000C3
:1002700008ED00E0000000D098030020DC0700201B
:10028000552100102104001045220010575600008F
:1002900006005250ABB360531831001006005250A4
:1002A000861C030228310010060052505422A29DE1
:1002B0003C31001005005250DE65F468C034001077
:1002C000F8B5C04606480749091A8B10C90FC91866
:1002D00010B5491003D0044B002B00D0984710BD37
:1002E000980300209803002000000000054B10B583
:1002F000002B03D00449054800E000BFFFF7E2FFF0
:1003000010BDC046000000006C07002078300010CF
:100310000122014B1A707047D70700200122014BC0
:100320001A707047CD07002030B5012904D002298A
:1003300032D000291DD030BD00222F4B1A702F4B18
:100340001978002944D12E4C2378002B47D02D4A10
:100350002D4D13780068DBB2EB5CDBB203611378E0
:100360000133DBB213701378042BE4D921701170C0
:10037000E1E7214B1A78002A12D102682349126959
:10038000D2B20A70012A2DD0032A02D101211C4ABF
:10039000117001221A70CEE700221A4B1A70CAE7B8
:1003A00019701A4B1B78022B1FD0042BC3D1154A8E
:1003B000006813780069164CDBB2C0B2E0541378C1
:1003C0000133DBB213701378042BB4D91170B2E788
:1003D000104900680978C9B201611A70ABE7026878
:1003E0001361A8E705490A70D3E703680A4A1B6945
:1003F000DBB21370094BCCE7D3070020CB070020FA
:10040000CA070020D107002044070020D20700209F
:10041000AC070020D5070020D8070020D407002013
:10042000F0B5DE4657464E464546E0B597B002F079
:1004300087FB102000F0A0FB112000F09DFB0321A2
:10044000102000F00DFB0321112000F009FB002219
:100450000121102000F01CFB00220121112000F0DE
:1004600017FBE64CE649200002F03EFD8027200005
:10047000D0245C21E34A240602F080FDBF04192049
:1004800000F07AFB67621B20A76100F075FB8023F8
:100490001B0563621C20A36100F06EFB80235B05DB
:1004A00063620A20A36100F067FB8023DB006362C4
:1004B0000C20A36100F060FB80235B01A36200229B
:1004C00001210C2000F0E4FA0B2000F055FB802302
:1004D0001B01A362CC4C002201210B2000F0D8FAB2
:1004E000CA49200002F096FB002680460223022221
:1004F00000212000009602F005FC002201210220CC
:1005000000F0C6FA00220121032000F0C1FA802287
:10051000F82352025B020E920F93C02310221B039A
:100520000EA912A845461196109302F0C7F943464A
:100530000F351C331B03ED011D43102212A90EA819
:10054000139502F0BBF980235B021193B04B424636
:100550001D4080231B032F430021200010930EAB6E
:100560000F9702F011FC01222368AA49134323606C
:1005700080230A785B421A43D2B20A700A780800D4
:10058000089107218A430270A348012502780B9045
:100590001343DBB2037003788B430370FA204000EF
:1005A00001F0D6F9012204219C4B0C2000F082FAC4
:1005B00001F054F89A4B9B4A02939B4B019600938F
:1005C000002301F04FF8994A994B0992994A0593F3
:1005D0000A92994A1B789346984A994E9246994AAC
:1005E000994F0792994A9146994A0692994A0D92D3
:1005F000994A0C9200229046022B35D0022B44D807
:10060000002B5FD0642001F0A3F980222561520005
:100610006368190011401342FAD14A46236A1268EE
:100620009B1A5A46336033681B0E3B7033681B14A9
:10063000DBB27B7033681B12DBB2BB703368DBB29A
:10064000FB70336812689B1A524613601368002BC4
:1006500071D1059A02331370069B1B78002B73D15E
:10066000059B1B78022BC9D1D02380221B06520583
:100670009A618022D2009A61302208990B789343C4
:100680000B700323059A137001E0032BB6D10B9B6B
:100690000C9A1B785B092B401370F8D053464246E6
:1006A0001A605A463368136013684A46136043461B
:1006B00042463B707B70BB70FB70059B1A70079BBA
:1006C0001A700023099A1278002A55D1079A1278D5
:1006D000002A10D020220899059B1D700B78134327
:1006E0000B700B78103A13430B708022D023520505
:1006F0001B065A610123069A1278002A00D17BE773
:10070000962001F025F9D022120653681B0B1D42DA
:10071000FBD001210D9803784B40DBB20370002B16
:1007200023D08023DB00536180239B045361424626
:10073000069B1A7094E75A46336813605346196053
:10074000069B1B78002B8BD0962001F001F9D0225C
:10075000120653681B0B1D42FBD001210D98037834
:100760004B40DBB20370002BDBD18023DB009361B5
:1007700080239B049361DAE7802125614900626848
:10078000100008400A42FAD1226A0A990A600A68EF
:10079000002A0ADAD02280211206890451610A99BE
:1007A0000A6859460A605246106059460A9A126809
:1007B0000968521A51460A600A68952A11DCD0224B
:1007C00080211206090591614146079A1170594628
:1007D0000A9A12680A60524641461160099A1170DD
:1007E00074E7D0228021120609055161079A494613
:1007F00015705A4612680A60E9E7C0466C0300208B
:10080000A08601002903001000002050783000105D
:10081000FFFFFFE0D5070020D80700201D030010D0
:10082000C006002020A1070011030010D7070020F8
:10083000C807002068070020880700203C07002028
:10084000F8060020CF07002044070020840700207E
:10085000CD070020C9070020CC070020D0231B06AD
:100860001B687B4A99005258F0B5574692465A1E6B
:1008700093413022DE464E4645465B421A40130005
:10088000744AE0B5944683B063440193724B884642
:1008900008260F279B463500083DEA0813000199FA
:1008A00008339B005C58002C22D001239946534604
:1008B000002B27D039002140274213D05B46424607
:1008C0009A584B46AB401A420CD1072208002A40E6
:1008D000920090400200EB0860483C339B001A50A5
:1008E0002800D04724090135002C01D0AE42E1D8C0
:1008F0000836282ECFD103B0F0BCBB46B246A9467D
:10090000A046F0BD39002140274206D00133AB405C
:10091000454651484059184276D02309E8D00F2265
:10092000110019401A420DD04546F31F0E3A9A4065
:1009300049484059104205D1DB08484A3C33090177
:100940009B009950230AD3D00F22110019401A425C
:100950000DD04546B31F0E3A9A403F4840591042C9
:1009600005D1DB083D4A3C3309029B009950230B1B
:10097000BED00F22110019401A4236D1230CB7D035
:100980000F22110019401A4243D1230DB0D00F227B
:10099000110019401A424BD1230EA9D00F22110089
:1009A00019401A420DD04546B31E0E3A9A402A48C5
:1009B0004059104205D1DB08284A3C3309069B0008
:1009C0009950240F721E002C00D191E7012340465C
:1009D000934021490958194200D089E7D3083C3394
:1009E0001E4A24079B009C5082E74546731F0E3A1F
:1009F0009A40194840591042C0D1DB08174A3C338D
:100A000009039B009950B9E7144B3C329200D15036
:100A100083E74546331F0E3A9A400F48405910422B
:100A2000B3D1DB080D4A3C3309049B009950ACE775
:100A30004546F31E0E3A9A40074840591042ABD142
:100A4000DB08064A3C3309059B009950A4E7C046E1
:100A5000F0060020004101409C07002000400140BA
:100A6000094A10B594464024830063441A68C000C4
:100A70006240803414408022520113431C60034BB7
:100A80009C466044416010BD04C0014000400140EC
:100A9000074B80009C4660440368C90092000A43EB
:100AA0005A400C231A4080235B0103431A607047AD
:100AB00004C00140F8B51D00D0231B061C680600C9
:100AC000604244412F20644284432748F70884460B
:100AD00007203040800081403800244E3C30644480
:100AE0008000BF008151E419002A11D080229201B8
:100AF000224311601C681E4EA400A359002B15D080
:100B0000002D25D0A55101210D2000F0ADF8F8BD34
:100B1000C0229201224311601C68154EA400A35903
:100B2000002B0CD0002D18D0A551F0E7002DEAD0F5
:100B300000220D200F49A55100F0DAF8E3E7002D5F
:100B4000E5D000220D200B49A55100F0D1F8DEE7D9
:100B50000D20084900F0C6F9D4E70D20054900F042
:100B6000C1F9A551D3E7C0463041014000400140E2
:100B7000F00600205D0800100123D02283401206F9
:100B800093629361094A40219446830063441A6842
:100B9000C0004A4080311140802252011343196045
:100BA000034B9C46052360444360704704C00140EA
:100BB00000400140EFF3108072B6034A1368002B27
:100BC000FCD0BFF35F8F70472C0100D0BFF35F8F65
:100BD0000022024B1A6080F3108870472C0100D06D
:100BE00070B5EFF3108C72B60D4D2B68002BFCD056
:100BF000BFF35F8F0724CB08C618C05C01230C40ED
:100C0000A3401C000440034207D118433070BFF3D7
:100C10005F8F2C608CF3108870BD100001F014FB06
:100C20002C0100D0024B18688007C00F7047C046E7
:100C300000C006400021044B044ABFF35F8F02C38B
:100C40009342FAD17047C046000100D0800100D025
:100C5000044A1078431CDBB2172B00D91023137001
:100C60007047C046B402002001238340002904D00D
:100C7000034A1360034A13607047034A1360FBE79B
:100C800080E200E000E100E080E100E0024B103093
:100C90009B688000C058704700ED00E070B50D0003
:100CA000EFF3108672B60F4A1368002BFCD0BFF327
:100CB0005F8F0D4B10309B6884001B590B4A934289
:100CC00003D09D4201D001F0D7FA074B9B681D511C
:100CD000BFF35F8FBFF35F8F0022024B1A6086F372
:100CE000108870BD240100D000ED00E0CD0100109F
:100CF000F0B557464E46DE464546E0B585B006009F
:100D000000911700EFF3108B72B66B4A1368002B3B
:100D1000FCD0BFF35F8F0025684B5D579A46002DCE
:100D200000DA8CE06B00664C01935B199B009846DF
:100D3000A146C1444B4652469B7910361370614B15
:100D4000B6009B6899590B1B2F2B33D95E4B9942E8
:100D500000D0ADE0019B42469C465C4B6544AD0033
:100D600063535B4B0232A218043B9B1A1B05594A82
:100D70005B0D651913436B80574B0121AB80FF233B
:100D8000AB71009BEF71AB604B460B4319004D4BB1
:100D90009B689951BFF35F8FBFF35F8F0022464B73
:100DA0001A608BF3108805B0F0BCBB46B246A9466A
:100DB000A046F0BD01200A008243D3798C46BB4295
:100DC00031D84546130045491B1B5B415943090D6A
:100DD0003E4B63533E4B02356519043B5B1B1B05C1
:100DE0003C4D5B0D2B43AA464D466B800425AC461B
:100DF0005546E044131F44441B1B1B055B0D1D435C
:100E00004B46997100999D8099604946DF71344B3A
:100E100001431360BBE75800C01880002018C17957
:100E2000B94212D902000623D356002BF3DA0293FB
:100E3000131D9A46BD231B026146039319E001F07E
:100E40001BFA002553465D576CE7908802934005D6
:100E5000131D9A46031561469C464046D44463469A
:100E600004302018181AE0230005400D1B02184317
:100E7000039004235B429C46E14450464B461B1AB8
:100E80001B055B0D9C46134B957198466346404687
:100E900003439380019B5A199200039BA418A380DB
:100EA000029B0F4AA371009B2260E771A3606EE76B
:100EB00001F0E2F94EE7C046240100D0D00700203F
:100EC000B802002000ED00E0CD01001000A1FFFFFE
:100ED000E802002000E0FFFF00BDFFFFAAAA00001B
:100EE00001488047F0B5DE4657464E464546E0B5D8
:100EF0000C0083B0EFF3108A72B6604A1368002BBF
:100F0000FCD0BFF35F8F1022914681444A465C4B70
:100F100096009B689D595B4B98469D4205D0A54223
:100F200016D0594FEB1B2F2B14D9554B9B689D5155
:100F3000BFF35F8FBFF35F8F0022504B1A608AF3BD
:100F4000108803B0F0BCBB46B246A946A046F0BD2F
:100F50001D00EAE7012383409B465A464B4B1B6822
:100F60001A4000925A464A4B1A60BFF35F8FFFF750
:100F70007AF9031E01901DD12A0001339A4390682B
:100F8000844208D171E04B005B189B00FB18986805
:100F9000A04245D01A00062151560029F3DA8442B6
:100FA0006AD0009B002B34D05A463A4B1A60374B1C
:100FB0001A60BAE7814530D12A0001239A4390682C
:100FC0008442E8D1062151561300002940DB4A0033
:100FD000501880003C188046A0689860E079D8716D
:100FE00006202056987100282FDBA488F81A640583
:100FF000241544440019E0240005400D2402204338
:1010000098805318244A9B001078FB18987111702F
:10101000C7E75A461E4B1A6087E701F02DF9CBE768
:10102000062159560029D2DA0199002910D1FF3141
:1010300091711A49918018490A789A71184ADB1BF4
:101040005B415A43120D0A70ABE7BD200002D7E79F
:10105000144A1549D21A083A5002400D01439980AA
:10106000124952080A43DA809BE7062151561300C1
:101070000029ACDA4546DEE71300D5E7240100D0AD
:1010800000ED00E0CD010010B802002000E100E01A
:1010900080E100E080E200E0D007002000BDFFFF1B
:1010A000AAAA0000F202002000F0FFFF00F8FFFFF4
:1010B000F8B5012504000543FFF7D5F8EFF3108CD0
:1010C00072B6214A1368002BFCD0BFF35F8F1F4E0E
:1010D0002100B7681E4A1F4B891A49414B431B0D1B
:1010E00059B28300F858A8421CD00623D3568B422D
:1010F0001CD01223D3568B4222D01E23D3568B42B0
:1011000020D02A23D35603208B4210D0124B1A78BA
:101110001970A271BFF35F8F00220B4B1A608CF322
:101120001088F8BDB2680D48D050EFE700204300AA
:101130001B189B00D218FF239371094B9380E5E79E
:101140000120F4E70220F2E7240100D000ED00E0E6
:10115000B8020020AAAA0000D0070020CD0100108C
:1011600000BDFFFF054B064A1360064A136053603B
:101170009360D36013615361936170478080808076
:1011800000E400E004E400E0024B9C466144890076
:10119000016070474000003483680B4810B58446F6
:1011A000614462441201090159189B185C684A683D
:1011B0000120944201D802D00020C0B210BD1A68AC
:1011C0000B689A42F9D8F7E7FFFFFF0F10B5080048
:1011D0000B690C009847002802D02068616810BD98
:1011E000E06000210020FAE70A4B1968EFF3108055
:1011F00072B60A68002AFCD0BFF35F8F1B68BFF38A
:101200005F8F00221A6080F3108840BF0020002109
:101210007047C046A8070020F8B5574645464E46D9
:10122000DE46E0B598460CAB1C780DAB1B7807008A
:1012300091469A460568002C5ED1AC7B002C3BD0D1
:10124000660029683619033E89194B78AB73002B69
:1012500000D1EB7300238B704B700B702D4BE21899
:10126000BB6812019B184A461A6042465A600A9AA5
:101270009A600B9ADA6000238B704B700B706B7B5B
:101280009B46002B2BD022005946A8686B689847D4
:101290002A68002816D05B4658465B005B449619C6
:1012A000033BB070D118D35C002B00D073705B4649
:1012B0000C706B735C4513D0F0BCBB46B246A946BC
:1012C000A046F8BD5B465B005B44033BD3189C70B3
:1012D0009119925D002A00D05A705B460B706C73B6
:1012E0004A464346387D00F017FC051E0AD10E9B86
:1012F000002BE1D01D70DFE7660029683619033E38
:101300008919ABE75346002BF1D12100386800F072
:1013100059FEECE7FFFFFF0FF0B5DE4657464E469D
:1013200045460023E0B58DB00A936A4B8200D7583A
:1013300000239B460B9000F08FFB02000B007868A7
:10134000EFF3108972B64D4601680029FCD0A9461A
:10135000BFF35F8F39684E7B8C46002E2ED0BC6861
:101360005D49A246711809018A44514608684968D6
:1013700004000D00A41A9D41002D5EDD02000B004B
:101380000B9800F0C9FB002300229A460023089224
:101390000993002398467B68BFF35F8F5A461A6013
:1013A00089F310884346002B12D10028C3D10DB019
:1013B000F0BCBB46B246A946A046F0BD00230022C1
:1013C0009A46002308920993002300209846E2E7FA
:1013D0000A9B514618023043C047069007917A682D
:1013E000EFF3108572B654461368002BFCD0A2466A
:1013F000BFF35F8F0699079A002A3BDB114302D0A7
:101400003B69002B52D13B68D97B002905D01A6873
:10141000480041185218033A5670DE73FA68013ECC
:10142000935D013393555B463B617B68BFF35F8FF0
:101430005A461A6085F310887DE7002D01D1002CF3
:101440009CD10021604600F025FD53465C681B6876
:101450000893099453469B6898465346DB689A461E
:10146000FB689B19013B1B780A931B0203433B61FA
:10147000002090E73B69002BC5D0089B099C5B1AB4
:101480009441089809991A002300A14219D8994259
:101490001BD0002104910131039151460191414635
:1014A000380002960091FFF7B7FEBCE700F0D4FACF
:1014B000069A079B12184B41994202D8E9D19042F3
:1014C000E7D901225242D317E3E708999142E0D9C4
:1014D000F7E7C0468C070020FFFFFF0FF8B557461F
:1014E0004E464546DE46E0B5404D824689466A682E
:1014F000EFF3108872B61368002BFCD0BFF35F8F38
:101500002E68B47B002C48D0670033683F19033F36
:10151000DB195A78B273002A00D1F273344AA11849
:10152000AA68090152185146116049465160314973
:1015300091600021D160997059701970737B9B463E
:10154000002B45D022005946B0687368984732682E
:10155000002830D05B4658465B005B44D719033BFC
:10156000B870D118D35C002B00D07B705B460C7038
:1015700073735C452DD00026EB681B19013B19786D
:101580006B68BFF35F8F00221A6088F31088002019
:10159000002E0AD10802204307E06B68BFF35F8F7B
:1015A0001C6088F3108801204042F0BCBB46B24664
:1015B000A946A046F8BD5B465B005B44033BD318DD
:1015C0009C70D119D25D002A00D05A705B460B7016
:1015D000747352464B46287D00F09EFA061ECAD010
:1015E0002100286800F0EEFCC6E7C046000300209A
:1015F000FFFFFF0FE911001010B5124C6368002BBC
:1016000004D00A211048FFF7BFFD10BD23000F4A88
:101610001021206800F03EFB032000F011FA0320A7
:1016200000F0E8FA03200A4900F030FAFFF710FB57
:10163000084B9C46032360442375074B8000606081
:10164000DC60DEE700030020A807002099110010ED
:1016500019130010400000348C0700200048704728
:1016600000030020F0B557464E46DE4645461100C1
:10167000E0B585B006009C46109F194300D1F9E003
:101680006146DB170193009353401C00019B4B40C4
:101690001D0000980199241A8D4163460E997B60C4
:1016A0000F9B3A607B61BE60396100F0D5F90200A2
:1016B0000B00A4185D4100940195A94200D9E3E014
:1016C00000D1DDE000239846744B1097039300236C
:1016D0009946109B3700464698467A68EFF3108B80
:1016E00072B61368002BFCD0BFF35F8F3D68AC7BF4
:1016F000002C00D174E063001B19033B1A009446D0
:1017000002932B6863445A78AA73002A00D1EA73C3
:10171000634AA118BA68090152180098019910602B
:101720005160039991604146D1604A469A705A705F
:101730001A706B7B9A46002B00D184E02200514640
:10174000A8686B6898472A68002800D16DE0534666
:101750005B005344033B9C46D11853460298101833
:1017600083706346D35C002B00D0437053460C70EB
:101770006B733500544567D0FB687A681B19013BD1
:101780001B78BFF35F8F494611608BF31088002DE3
:101790000CD147461B02234301352800FB6005B0EE
:1017A000F0BCBB46B246A946A046F0BD4346404603
:1017B0001B699847061E1FD04246146855682200D0
:1017C0002A4367D0002D1ADA0098019902000B0015
:1017D000121BAB41994222D843D0009201937CE77F
:1017E0003E0047467368BFF35F8F1C608BF3108821
:1017F000012300255B42D0E747460023CDE700F0F8
:101800002BF902000B00A4185D4100940195A94238
:1018100005D800D061E700998A4200D85DE701232E
:101820005B42DC170093019457E753465B00534437
:10183000033B0298D3189C701118125C002A00D048
:101840005A7053460B706C73387D009A019B00F000
:1018500063F9051E00D18FE72100386800F0B2FB64
:101860008AE700999142B8D901235B42DC170093C3
:10187000019432E700230124002501229C460CE755
:1018800000998A4200D81DE701235B42DC170093D0
:10189000019417E74746050000237EE7CD110010AD
:1018A000FFFFFF0FF0B504000D0006267642F71784
:1018B000C64636196F4100B58F4213D810D000F0DC
:1018C000CBF832003B00121A8B41002B14DC002BAA
:1018D00037D02900200000F0C9F880BCB846F0BD20
:1018E0008642ECD90026002700F0B6F832003B0013
:1018F000121A8B41002BEADD30003900FFF7EEFDB4
:101900000028E6DB00239846BC460F4A0F4F7B6A4F
:101910009C4504D8B96AB142DBD29C45D9D1116843
:10192000EFF3108072B60B68002BFCD0BFF35F8F13
:101930001368BFF35F8F4146196080F3108820BFA2
:10194000E5E7002AC5D0D7E7A807002000400540FA
:1019500070B5060000F080F8FA2204000D000023A4
:1019600030000021920000F03FFF001969418D42D4
:1019700005D802D0FFF796FF70BD8442FAD9012046
:101980004042C117F6E7C046F0B5D6464F46464638
:10199000C0B5EFF305823F23134018001038EFF372
:1019A000108C72B620490A68002AFCD0BFF35F8F02
:1019B0000122170087401D4C1600A24667631C4C8D
:1019C0002578A0462C00C4402640224215D052461D
:1019D000566A184A8400A258964218D34246164BBB
:1019E000BD43E3581570BFF35F8F00220A608CF38C
:1019F0001088002B06D0984704E0BFF35F8F0E607D
:101A00008CF31088E0BCBA46B146A846F0BD0B4A3C
:101A10009B00904643441A681A60BFF35F8F00230F
:101A20000B608CF31088EDE7280100D000400540E2
:101A3000D6070020B0070020E0060020D03F054078
:101A400010B5034B01001800024AFFF7C9F810BD9A
:101A5000CE070020BC300010034B596A0A00986A78
:101A6000596A8A42FAD1704700400540064A536AD3
:101A70009942FCD807D1044B02E05A6A914202D144
:101A80009A6A8242F9D370470040054070B504005D
:101A90000D00EFF3108672B61A4A1368002BFCD0C3
:101AA000BFF35F8F002D1BD02000FFF7EFF8164922
:101AB00081420AD02000FFF7F1F801212000FFF752
:101AC000D3F80123A340114A1360114BA400E55041
:101AD000BFF35F8F00220B4B1A6086F3108870BD36
:101AE0000121A1400A4BA200D5500A4B20001A78D0
:101AF0008A4305491A70FFF7F5F900212000FFF726
:101B0000B3F8E5E7280100D08919001038600540D6
:101B1000E0060020D6070020F0B54F46D6464646E0
:101B2000C0B507002E4C616A0D00A66A616AA94221
:101B3000FAD18B4208D805D00120E0BCBA46B146A4
:101B4000A846F0BDB242F7D9EFF3108A72B6254825
:101B500001680029FCD0BFF35F8F0125BD402249F9
:101B60001F4C8846097889462943C9B28C464146AC
:101B700060460870391D890065630A511B49B80029
:101B80004350216A0020294219D0616A0800A66AE0
:101B9000616A8142FAD18B4219D801D1B24216D87A
:101BA000CC450BD00E4B1F221D625D6301233A40D2
:101BB00093400F4A136043464A461A700120BFF310
:101BC0005F8F0022074B1A608AF31088B5E7002068
:101BD000BFF35F8F0022034B1A608AF31088ACE7D3
:101BE00000400540280100D0D6070020B0070020A3
:101BF00080E200E0EFF3108C72B60A490B68002B0C
:101C0000FCD0BFF35F8F01238340074A074813626C
:101C100002789A430270BFF35F8F00230B608CF34E
:101C200010887047280100D000400540D6070020EA
:101C300070B505000E001400002923D0002A12D030
:101C400080686B689847296800280ED063001B19CC
:101C50007200033B9219CB18033A9E7088188A5C75
:101C6000002A11D10470300070BD73009B1962000E
:101C7000033B1219CB18033A9C7088188A5C002A1F
:101C800005D106702000EFE75A700470EBE75A7038
:101C90000670F7E730B583600023CCB2437301339D
:101CA000047342608373C4730D000068012C06D96D
:101CB000421C0133DBB2137003329C42F9D1FF2185
:101CC00029404B005B18C01800230338437030BD17
:101CD00070B505000C1E07D0630001681B19033B9B
:101CE000CB185A78002A01D1200070BD500080180E
:101CF0000338091800204E784870210058702800D9
:101D0000FFF796FF310004002800FFF7E1FF06000F
:101D1000002C26D00028E7D021003200A8686B688C
:101D20009847296800280ED073009B196200033B76
:101D30001219CB18033A9C7088188A5C002A00D0CC
:101D40005A700670D0E763001B197200033B9219AA
:101D5000CB18033A9E7088188A5C002A00D05A700B
:101D600004703400C0E7C046F8B557464E464546B5
:101D7000DE464C00E0B5641817000268033C05001D
:101D8000105D13190E009C46002852D0430098465F
:101D90001B18033BD31859788A46002919D1002F04
:101DA0000CD0EC7B002C50D063001B19D318033BE4
:101DB0005E70EE73434619180339531800229A7067
:101DC000002362465370F0BCBB46B246A946A0460B
:101DD000F8BD490051440339521851788846002112
:101DE000517089465970524601002800FFF720FFC4
:101DF00043468246002B07D05B0029684344033BDF
:101E0000CB185A78002A2CD1514642462800FFF7B9
:101E10000FFF0100002F1AD0A4462A68EF7B9444DC
:101E2000002F04D07B00DB19D318033B5E70EE73E8
:101E300010E0002FC4D0E97B002910D04B005B18C4
:101E4000D318033B5E70EE73BAE7EE73B6E7A446B1
:101E50002A6894440029B3D04B009846AAE7EE7351
:101E6000AEE7500080180338091848788346484682
:101E70004870587041462800FFF7DAFE5946804600
:101E80002800FFF725FF414602002800FFF7D0FE9B
:101E90008046B9E7F8B557464E464546DE46E0B5BA
:101EA000467B02687500AD19033D0F00515D531963
:101EB00004009C46002953D04B0098465B18033B16
:101EC000D3185878824600281BD1002F0CD0E57B10
:101ED000002D51D06B005B19D318033B5E70E67385
:101EE000434658180338131800229A70002362469C
:101EF000300053706173F0BCBB46B246A946A046A1
:101F0000F8BD400050440338121850788046002035
:101F100050708146587052462000FFF789FE4346B4
:101F20008246002B07D05B0021684344033BCB185B
:101F30005A78002A2CD1514642462000FFF778FEFD
:101F40000100002F1AD0AC462268E77B9444002F92
:101F500004D07B00DB19D318033B5E70E67310E0FE
:101F6000002FC3D0C07B002810D043001B18D3180B
:101F7000033B5E70E673B9E7E673B5E7AC462268EB
:101F800094440028B2D043009846A9E7E673ADE731
:101F9000500080180338091848788346484648702E
:101FA000587041462000FFF743FE59468046200006
:101FB000FFF78EFE414602002000FFF739FE804603
:101FC000B9E7C04670B5050000292CD0437B8B4291
:101FD0002ED04C0000686418033C0419A278002A33
:101FE00021D053009B18033BC25CC6188A4202D121
:101FF0001BE0002A08D053009B18033BC3185A78F3
:102000008A42F6D162785A70002301222800A37018
:102010006370FFF7A9FE697B02002800FFF708FE46
:102020006873012000E0002070BD63783370EBE737
:1020300001221900FFF798FEF2E7C04610B5040030
:10204000FEF706FE01002000FFF79EF8FF23237134
:10205000BFF35F8F10BDC04610B50400FEF7F8FD5A
:1020600001002000FFF790F8FF23A380BFF35F8FEC
:1020700010BDC046F8B5040006200D0000F05CFA63
:10208000002844D02A4B2B49E21853425A4180235E
:10209000DB039C469205284B62441A60274B1A606A
:1020A00010008B689843FBD1214B254AE318594215
:1020B0004B4180215B0049000620995200F03CFA18
:1020C0002900C00000F008FBC30921D140270121ED
:1020D000260080256162A36200232C36AD013543C2
:1020E0002B60062000F028FA3900800000F0F4FA96
:1020F0006022E36A53400E321A4080235B0133436F
:102100001A60104B236310232B600D3BA364F8BDB2
:102110000D4A934203D900230C4F0D49D8E77F2283
:102120000240013252089F011900BF181300CFE787
:102130000080FCBF00C0004000E0004000F0004014
:10214000C007002001030000FEFF0000C0FF3F00A9
:10215000FFFF00002C4B2D4A70B51A602C4A2D4B06
:102160002D491A6014008B689C43FBD12B4D2C4EDB
:10217000B54208D2013E761BB60808CD9847230029
:102180000134B342F9D100F07DF8264A214B1A60A0
:10219000214A9368DB43DB01DD09002BF9D14022A2
:1021A000214B224C224E9A675A671A67DA66B4426C
:1021B00008D223682000002B20D00834FFF74CFF02
:1021C000B442F6D31B4C1C4EC022B168200000F074
:1021D00075FBB460FEF72EFDFEF7C4FFFFF70CFAA7
:1021E000164C174EB44208D2013E361BB60808CC36
:1021F00098472B0001359E42F9D170BD0834FFF796
:102200001DFFB442D5D3DDE700E00040BFCDFBFEAB
:10221000FE7F3C0000F0004000C00040840300202E
:1022200094030020FFFFFF0100F001407403002031
:10223000840300200000002000ED00E09403002053
:102240009803002000BEFDE70FB400B5084883B036
:1022500000F0EAFB049B002B07D005A918000191B0
:1022600000F0E8F9034800F0DFFB00BEFDE7C046E0
:10227000E0300010F030001010B50148FFF7E4FF27
:10228000F430001010B50C2082B000F0AFF9FEF76A
:10229000C9FC002810D0864B86488649864A1860BB
:1022A00059609860D960186159619861D961186264
:1022B00059625A6202B010BD804CA06700F09EF9CE
:1022C00001227F4B1A60636C012BFCD103227D4BF2
:1022D0001A607A4A936B012BFCD1013301217A4AAF
:1022E0007A480093043300F02DF90523784A0093CF
:1022F0000121784800F026F9774B5A68FF2A02D866
:10230000802252005A6080226E4B694C12011A6082
:102310002169002905D0606900F0DEF9013001383B
:10232000FDD1E0226C4B6D4819680A400260022220
:102330001968514001320A40042102609A68114232
:10234000FCD08021664A09011160802252005A6047
:10235000644B2361644B5968FF2900D85A600322FB
:102360000121574B1A60604A93681942FCD0E02360
:10237000106803405D480360126803234A4002214D
:102380001340594A036093681942FCD08021584B8E
:10239000090119608021574B490051606361564B18
:1023A0005A68FF2A00D859608022544B12011A60E3
:1023B000E169002905D0606900F08EF9013001382B
:1023C000FDD1E0234C4A11680B404D490B60802140
:1023D0004C4B090119608021364B49005160E36183
:1023E000494B5A68FF2A00D859608022474B120196
:1023F0001A60216A002905D0606900F06DF901308A
:102400000138FDD1E023404A11680B4040490B6080
:102410008021404B0901196080235B0053608022BA
:10242000244BD20223623C4B5968914200D25A603D
:1024300080223A4B12011A60616A002905D0606956
:1024400000F04AF901300138FDD1E023324A116829
:102450000B4033490B608021324B09011960802306
:10246000DB025360144B63622F4B5A68FF2A02D879
:10247000802252005A6080222C4B12011A60A169FE
:10248000002905D0606900F027F901300138FDD13D
:10249000E023254A11680B4025490B608021254B1C
:1024A0000901196080235B005360124BA36101E7AF
:1024B00098030020006CDC021BB700000080004085
:1024C0003CB0004030B00040002F6859008002400E
:1024D000008C864700C002403080004030900040B1
:1024E00030A00040001BB7003C8000403C90004002
:1024F0003CA00040405973075480004054B0004055
:102500005490004054A000406080004060B0004003
:102510006090004060A000406C8000406CB00040C3
:102520006C9000406CA000404880004048B00040E3
:102530004890004048A00040014B8000C0587047C0
:1025400098030020F8B504000C2017001D000E00B1
:1025500000F0C2F843011B1A9901C91AC9000918F1
:102560008901380000F0B8F8069B29041B031943C1
:102570002368002B20DB194B194DE3185A425341B5
:102580008022520194461B03164A63441360164A84
:1025900013601F00AA689743FBD1C023221D9B0133
:1025A000134321222660A0601A602268002AFCDA08
:1025B0000822E1601A60F8BD3F2322681340B3424D
:1025C000D9D1A3681B051B0D8342D4D1EE22E36849
:1025D000D20213408B42CED1EDE7C0460040FDBF92
:1025E00000C0004000E0004000F000408023024AAC
:1025F0009B000343D362704700800540AA23064A2C
:102600001B0113602F230549D360054B19605368E4
:10261000002BFCDA7047C0460040024000B0FA00D0
:102620000060024010B5002800D110BD00F0AAF9EA
:10263000FBE7C04610B5094A0300146884B0002CBB
:1026400008D0012200910648524203A9A047012068
:1026500004B010BD00F0E8F90020F9E7640700209D
:102660002526001001480421014B184730030020A3
:1026700095260010142310B50100188804331B8818
:10268000984710BD162310B50100188802331B8827
:10269000984710BDF8B54746CE4680B50F1E19D0F5
:1026A00014239946043304000025012698464B461E
:1026B0001888434621681B88984701C4431E9841E7
:1026C000013540420640AF42F1D13000C0BCB946AE
:1026D000B046F8BD0126F8E7114A936F9B0813D264
:1026E00010665166002905D0FFE7FFE7FFE7516F4D
:1026F000106F704704B5002801D00020C04300F0DF
:10270000A3FC002104BDC046F0B5146E556E576F92
:10271000166FFFF7E5FF1466556657671667F0BD3D
:10272000000000D0132370B51D78012D15D010DDE9
:102730001D48FFF7A7FF1D4C01008022200000F07C
:10274000BDF8022D2DD01A48FFF794FF194B1860E1
:1027500070BD194B154CA364F5E7174B134C236060
:102760006360A360E36023616361A361E36123624B
:102770006362A362E36223636363A363E36323642B
:102780006364A364E36423656365A365E36523660B
:102790006366A366E36623676367A367E367A3646F
:1027A000D1E7054BA364CEE753440000C0040020EA
:1027B0004C330000A4070020BD27001007B5604679
:1027C00001880A0A0230DF2AFAD1C9B2820804D38A
:1027D000028840880004104300E00068014A50501D
:1027E000039007BDC004002051434343C9188C46E1
:1027F000110C83B24B4310B4040C614392B280B20B
:10280000504362431C041B0C001910BC59411304B3
:10281000120CC0185141614470470000132310B5D9
:1028200012481C78FFF72EFF0100012C0AD003DDAF
:1028300080220F4800F042F80E48FFF71BFF0E4BB6
:10284000186010BD0A4C5422200000F037F80B4BE2
:102850006365A365E36523666366A366E366236732
:102860006367A367E3672362E361E5E7534600001C
:10287000C00500204C330000A40700208128001070
:1028800007B5604601880A0A0230DF2AFAD1C9B2C8
:10289000820804D3028840880004104300E00068E6
:1028A000014A5050039007BDC00500200148042193
:1028B000014B18474003002095260010014B5B6830
:1028C0001847000040030020F0B546464F46D64664
:1028D000C0B5437C80460E001700002B4BD0002A69
:1028E00032DD274B01259A464B1E002400209946D5
:1028F00007E0335D0A2B2CD02B0001340135BB429D
:1029000013DA002CF5D133780A2BF5D143461B7C22
:10291000002BF1D14346504602211B6898472800FE
:102920002B0001340135BB42EBDB874204DD43461B
:10293000391A1B6830189847F619013E33780D3B59
:102940005A42534142461374E0BCBA46B146A846C7
:10295000F0BD4B461B5D0D2BCED0A042DADA4346CC
:10296000211A1B68301898474346504602211B68BD
:1029700098472800D4E70368110030009847E3E740
:102980006C310010F0B5CE46474680B583B06B463B
:10299000DE1CD02330701B061C68204B804601A92A
:1029A0001800994600F058FB071E20D01C4B1C68ED
:1029B000002C29D01B4D02E0E468002C0FD02368C6
:1029C000002BF9D02B68002B01D0A342F4D12000BA
:1029D00001223100FFF778FFE468002CEFD1002FCF
:1029E00012D1404603B0C0BCB946B046F0BD019B11
:1029F00064B29C420CD0484600F036FB084B1C6881
:102A0000002C01D00127D5E7484600F015FBE8E788
:102A1000034B1C68002CCDD1E3E7C0467C030020AB
:102A20004007002048070020F0B5DE4645464E46E8
:102A30005746E0B583B0060000F0CEFAD0231B065F
:102A40001C68304B050001A918009B4600F004FBF0
:102A5000804600283DD02C4B1C689A46002C47D05D
:102A60000A232A4F994602E0E468002C17D0236815
:102A7000002BF9D03B68002B01D0A342F4D12000F9
:102A80002A003100FFF720FF6B464A4620001A71EA
:102A900001A90122FFF718FFE468002CE7D14346A3
:102AA000002B25D153461C68002C06D06368002BF0
:102AB0000BD09847E468002CF8D1280003B0F0BC94
:102AC000BB46B246A946A046F0BDE468002CEDD155
:102AD000F3E7019B64B29C420ED0584600F0C4FA62
:102AE000094B1C689A46002C02D001239846B7E790
:102AF000584600F0A1FAD5E7034B1C689A46002C13
:102B0000AED1DAE77C030020400700204807002010
:102B10000A4A1368002B05D10CE01A00DB680C325E
:102B2000002B07D09842F8D1002902D1C368136066
:102B3000C16070470029FCD01060FAE74007002010
:102B400010B500F043F810BDF0B5002915DD0E4BAF
:102B50000D271A680D4B0E4CD3185D426B4145187A
:102B600020215B001E5F0478A64207D093691942BA
:102B7000FCD101301460A842F5D1F0BD936919422F
:102B8000FCD11760F2E7C046C40700200080FCBFFC
:102B9000C007002030B50500002912DD00201024F8
:102BA000094B013D1A6893691C4208D101309369B1
:102BB0001C42FCD113682B548142F4D130BD002853
:102BC000FCD103204042F9E7C4070020E12110B501
:102BD0000B4B0C481B780C4B49021B780B4B1860B5
:102BE000FFF748FA02210020FDF73AFF02210120F9
:102BF000FDF736FF01210648FFF78AFF10BDC046EA
:102C0000E431001000400340E0310010C407002010
:102C100050030020F0B5DE4657464E4645468846EE
:102C2000E0B583B006000524FDF7C4FF43461F79D5
:102C30001C57314B8246F3185A4253419B009C4625
:102C40002E4A1300934662469B5801229946BA4089
:102C50002023013ADB1B002C36DB9C4246DCA240E1
:102C60004B46134242D10192002F1CD042464346AC
:102C700052781B7812021A4343469B7880251B0426
:102C800013434246D078002200061843AD0153009A
:102C9000C15AA94200D20919A31812339B0001326C
:102CA0009951BA42F3D34D46019B62461D435B46A0
:102CB00050469D50FDF78AFF200003B0F0BCBB4694
:102CC000B246A946A046F0BD002B0FDB11004846D6
:102CD00099401C000191014206D1C5E71500494603
:102CE0009D401C00294204D0013BF7D20448FFF765
:102CF000ABFA0195B8E7C0460000D0AFD806002077
:102D0000B0310010F0B54E464546DE4657468A467D
:102D10004900E0B50E0080465644F6004644894618
:102D2000310009ACDC31257808686C426541844685
:102D300014481E2483466D42A5435D44052B0CD9DF
:102D4000A0201F274005D836540104430532053B17
:102D50000C603A403560052BF6D84F465744FF00CB
:102D60003800520140449B0613430200DC321360DA
:102D70006346D83005601360F0BCBB46B246A94636
:102D8000A046F0BD9FE00000F0B501258D4004682D
:102D9000AC430460002B30D04D006C18E4000419E3
:102DA00026001F68C83637605F68DC3477609F682C
:102DB000DB68B76023606B18DB001D008024D03512
:102DC000451964012C4380252D0625602560144C8F
:102DD0000D1D8C40846001242700AF403D00083168
:102DE0008C401F2106680A403543056005682C4366
:102DF0000460C018D8300260F0BD4D006C18E400CB
:102E0000041926008027C8367F023760F8277F0222
:102E10007760C027DC343F03B7602360CBE7C04650
:102E200001010101F8B5DE4657464E464546834648
:102E3000E0B505200C00FFF77FFB060060082100CD
:102E40008019FFF749FC430098468044070005219C
:102E50004046FFF741FC3B1A9A46204B81467000E2
:102E600080199C4234D81E49FFF736FC451C5B464E
:102E70001C6800230422E3662368012053400232C9
:102E80001A4080235B0123431A605346E3614B469B
:102E9000236243464F2B03D950214046FFF71CFCC9
:102EA000A023E050E36F22005D4080237C322D049C
:102EB0005B0113432D0C1D60012339003000E366D4
:102EC000FFF70AFCF0BCBB46B246A946A046F8BDD7
:102ED0000449FFF701FC451CC9E7C0463F420F000B
:102EE0008096980040787D01104A70B5821A53424E
:102EF0005A41072352429A430D4B10321A600D4B30
:102F00000D4C1A601500A3689D432B1EFAD1662450
:102F10000268FF340571D5661460633C8833FF3C5A
:102F2000D5639563D450FFF77DFF70BD6C0300201F
:102F300000E0004000F0004000C0004003680020B6
:102F4000D86600290DD080211868890041400A48C0
:102F5000014080204001184301609A600122DA6636
:102F6000704741211A684A4003490A4080214901BB
:102F700019430A60F2E7C0464102000070B5114EE5
:102F80000500841B63425C4160000F4B0019800008
:102F9000C5501B185A6028000A000121FFF7CEFF18
:102FA0002B680A4A17341A63B54208D00849200032
:102FB000FDF774FE01212000FDF756FE70BD0549A6
:102FC000F5E7C046640300204C07002064060000BB
:102FD000710100201102002010B583070AD0030000
:102FE000032102E001330B4205D01A78002AF9D1FF
:102FF000181A10BD030019680C4A0D4C8A188A4330
:1030000022420FD15968094A04338A188A4322425E
:1030100008D15968054A04338A188A432242F1D0FC
:1030200000E001331A78002AFBD1E1E7FFFEFEFE43
:1030300080808080F8B5C04601B40248844601BC57
:10304000604700BF4901002001B40248844601BC2A
:10305000604700BFB102002001B40248844601BCB1
:10306000604700BF0901002001B40248844601BC4A
:08307000604700BFC100002011
:10307800803000101D0000000F000E001A000F0025
:103088001A000F000F000E000E000F000F001A00AC
:103098000F001A008F0020E0808027A0E6A03600ED
:1030A800C2A02080C3A0E2400240A6A02AA05C00E3
:1030B80049A00000486172647761726520616C61A3
:1030C800726D20256420616C726561647920636C7F
:1030D80061696D65640000000A2A2A2A2050414E61
:1030E8004943202A2A2A0A000A000000486172641B
:1030F800206173736572740052656C656173650055
:10310800626F6F74325F773235713038300000008B
:10311800312E342E300000007069636F000000000B
:10312800717561647261747572655F656E636F64F1
:103138006572000041756720323220323032330028
:1031480006005250D3F0754200310010060052506C
:10315800E182887F0831001006005250BBFF3CB660
:10316800203100100D0A0000554152542073746438
:10317800696E000055415254207374646F75740071
:103188005541525420737464696E202F20737464FF
:103198006F7574000600525053B4F4A188310010C2
:1031A80008005250920000004E6F2070726F6772D4
:0C31B800616D2073706163650000000011
:1031C400483100105431001090020010603100109A
:1031D4009C020010A8020010B4020010A8310010D4
:0431E4009C3100100A
:1031E800D02330B500251B0600245D5706E0036890
:1031F800BFF35F8F1C6081F3108820BF0268EFF374
:10320800108172B61368002BFCD0BFF35F8F03796F
:103218007F2BECD905710368BFF35F8F00221A601A
:1032280081F3108830BDC04603000068EFF3108CAE
:1032380072B60268002AFCD0BFF35F8F04229A5648
:10324800002A04DB002900D00A60002004E0D02214
:103258000120120612681A711B68BFF35F8F0022E3
:103268001A608CF3108870470268EFF3108172B609
:103278001368002BFCD0BFF35F8FFF230371036833
:10328800BFF35F8F00221A6081F3108840BF704738
:10329800F0B5C646254E00B537683D68EC6A002C87
:1032A80026D040231A0022409046234223D06B6D3B
:1032B800337A002B05D07368022138009847002321
:1032C8003372630524D56B6EA30500D52B6E630797
:1032D80005D5012300213372380073689847A40686
:1032E80006D52B6D01230121337238007368984786
:1032F80080BCB846F0BD63050AD56B6E337A002BE7
:10330800E2D0736802213800984743463372DBE7FE
:10331800A305DCD52B6E337A002BD8D07368022135
:103328003068984700233372D1E7C0464C07002025
:10333800F0B5C646254E00B5F7683D68EC6A002C26
:1033480026D040231A0022409046234223D06B6D9A
:10335800337D002B05D033690221380098470023BC
:103368003375630524D56B6EA30500D52B6E6307F3
:1033780005D5012300213375380033699847A40621
:1033880006D52B6D01230121337538003369984721
:1033980080BCB846F0BD63050AD56B6E337D002B43
:1033A800E2D0336902213800984743463375DBE79A
:1033B800A305DCD52B6E337D002BD8D033690221D1
:1033C800F068984700233375D1E7C0464C070020C2
:1033D8007047C04610000000000000000000010017
:1033E80000000000000000000000020000000000D3
:1033F80000000000000003000000000000000000C2
:103408000000FF000000000000B5486801318E464A
:103418000047704609380149884700BDB1100010BF
:103428001803002000000000C0030020FC06002054
:1034380000000000000000000C0700200000000051
:103448000000000010000000000000000000000064
:10345800503300004C330000543300005233000056
:103468004D5300004D430000533400004334000026
:10347800492B001000000000952B001000000000F0
:1034880000010000008004400000000000400440EB
:103498000000000000000000000000000000000024
:1034A80000000000AD280010652600102527001038
:0834B8001D280010ED020010B8
:04000005100001E9FD
:00000001FF
